{
  "contractName": "Agreement",
  "abi": [
    {
      "constant": false,
      "inputs": [
        {
          "name": "_fromToken",
          "type": "address"
        },
        {
          "name": "amount",
          "type": "uint256"
        }
      ],
      "name": "portAndPay",
      "outputs": [
        {
          "name": "",
          "type": "bool"
        }
      ],
      "payable": false,
      "stateMutability": "nonpayable",
      "type": "function"
    },
    {
      "constant": false,
      "inputs": [
        {
          "name": "_replaceMeWithMsgSender",
          "type": "address"
        },
        {
          "name": "_fromToken",
          "type": "address"
        },
        {
          "name": "amount",
          "type": "uint256"
        },
        {
          "name": "me",
          "type": "address"
        }
      ],
      "name": "port",
      "outputs": [
        {
          "name": "",
          "type": "bool"
        }
      ],
      "payable": false,
      "stateMutability": "nonpayable",
      "type": "function"
    },
    {
      "constant": true,
      "inputs": [],
      "name": "getInfo",
      "outputs": [
        {
          "name": "",
          "type": "address"
        },
        {
          "name": "",
          "type": "address"
        },
        {
          "name": "",
          "type": "address"
        },
        {
          "name": "",
          "type": "address"
        },
        {
          "name": "",
          "type": "uint256"
        },
        {
          "name": "",
          "type": "uint256"
        },
        {
          "name": "",
          "type": "uint256"
        },
        {
          "name": "",
          "type": "bool"
        },
        {
          "name": "",
          "type": "bool"
        }
      ],
      "payable": false,
      "stateMutability": "view",
      "type": "function"
    },
    {
      "constant": true,
      "inputs": [],
      "name": "checkThis",
      "outputs": [
        {
          "name": "",
          "type": "address"
        }
      ],
      "payable": false,
      "stateMutability": "view",
      "type": "function"
    },
    {
      "constant": false,
      "inputs": [
        {
          "name": "_signerToken",
          "type": "address"
        }
      ],
      "name": "signAgreement",
      "outputs": [
        {
          "name": "",
          "type": "bool"
        }
      ],
      "payable": false,
      "stateMutability": "nonpayable",
      "type": "function"
    },
    {
      "inputs": [
        {
          "name": "me",
          "type": "address"
        },
        {
          "name": "_signer",
          "type": "address"
        },
        {
          "name": "_ownerToken",
          "type": "address"
        },
        {
          "name": "_direction",
          "type": "uint256"
        },
        {
          "name": "_left",
          "type": "uint256"
        },
        {
          "name": "_right",
          "type": "uint256"
        },
        {
          "name": "_canPort",
          "type": "bool"
        }
      ],
      "payable": false,
      "stateMutability": "nonpayable",
      "type": "constructor"
    }
  ],
  "bytecode": "0x6060604052341561000f57600080fd5b60405160e08061119b83398101604052808051906020019091908051906020019091908051906020019091908051906020019091908051906020019091908051906020019091908051906020019091905050866000806101000a81548173ffffffffffffffffffffffffffffffffffffffff021916908373ffffffffffffffffffffffffffffffffffffffff16021790555085600260006101000a81548173ffffffffffffffffffffffffffffffffffffffff021916908373ffffffffffffffffffffffffffffffffffffffff16021790555084600160006101000a81548173ffffffffffffffffffffffffffffffffffffffff021916908373ffffffffffffffffffffffffffffffffffffffff1602179055508360048190555082600581905550816006819055506000600760006101000a81548160ff02191690831515021790555080600760016101000a81548160ff02191690831515021790555050505050505050611018806101836000396000f30060606040526004361061006d576000357c0100000000000000000000000000000000000000000000000000000000900463ffffffff168063034d7c531461007257806310365461146100cc5780635a9b0b8914610164578063d52630df1461027d578063db8ddcc9146102d2575b600080fd5b341561007d57600080fd5b6100b2600480803573ffffffffffffffffffffffffffffffffffffffff16906020019091908035906020019091905050610323565b604051808215151515815260200191505060405180910390f35b34156100d757600080fd5b61014a600480803573ffffffffffffffffffffffffffffffffffffffff1690602001909190803573ffffffffffffffffffffffffffffffffffffffff1690602001909190803590602001909190803573ffffffffffffffffffffffffffffffffffffffff169060200190919050506107ab565b604051808215151515815260200191505060405180910390f35b341561016f57600080fd5b610177610dc4565b604051808a73ffffffffffffffffffffffffffffffffffffffff1673ffffffffffffffffffffffffffffffffffffffff1681526020018973ffffffffffffffffffffffffffffffffffffffff1673ffffffffffffffffffffffffffffffffffffffff1681526020018873ffffffffffffffffffffffffffffffffffffffff1673ffffffffffffffffffffffffffffffffffffffff1681526020018773ffffffffffffffffffffffffffffffffffffffff1673ffffffffffffffffffffffffffffffffffffffff1681526020018681526020018581526020018481526020018315151515815260200182151515158152602001995050505050505050505060405180910390f35b341561028857600080fd5b610290610ea3565b604051808273ffffffffffffffffffffffffffffffffffffffff1673ffffffffffffffffffffffffffffffffffffffff16815260200191505060405180910390f35b34156102dd57600080fd5b610309600480803573ffffffffffffffffffffffffffffffffffffffff16906020019091905050610eab565b604051808215151515815260200191505060405180910390f35b600080600160009054906101000a900473ffffffffffffffffffffffffffffffffffffffff1673ffffffffffffffffffffffffffffffffffffffff168473ffffffffffffffffffffffffffffffffffffffff1614806103cf5750600360009054906101000a900473ffffffffffffffffffffffffffffffffffffffff1673ffffffffffffffffffffffffffffffffffffffff168473ffffffffffffffffffffffffffffffffffffffff16145b15156103da57600080fd5b839050828173ffffffffffffffffffffffffffffffffffffffff166370a08231336000604051602001526040518263ffffffff167c0100000000000000000000000000000000000000000000000000000000028152600401808273ffffffffffffffffffffffffffffffffffffffff1673ffffffffffffffffffffffffffffffffffffffff168152602001915050602060405180830381600087803b151561048157600080fd5b6102c65a03f1151561049257600080fd5b50505060405180519050101515156104a957600080fd5b600160009054906101000a900473ffffffffffffffffffffffffffffffffffffffff1673ffffffffffffffffffffffffffffffffffffffff168473ffffffffffffffffffffffffffffffffffffffff1614801561050b575061050a84610f12565b5b15610655578073ffffffffffffffffffffffffffffffffffffffff1663eee82609600260009054906101000a900473ffffffffffffffffffffffffffffffffffffffff168533306040518563ffffffff167c0100000000000000000000000000000000000000000000000000000000028152600401808573ffffffffffffffffffffffffffffffffffffffff1673ffffffffffffffffffffffffffffffffffffffff1681526020018481526020018373ffffffffffffffffffffffffffffffffffffffff1673ffffffffffffffffffffffffffffffffffffffff1681526020018273ffffffffffffffffffffffffffffffffffffffff1673ffffffffffffffffffffffffffffffffffffffff168152602001945050505050600060405180830381600087803b151561063c57600080fd5b6102c65a03f1151561064d57600080fd5b5050506107a4565b61065e84610f12565b156107a3578073ffffffffffffffffffffffffffffffffffffffff1663eee826096000809054906101000a900473ffffffffffffffffffffffffffffffffffffffff168533306040518563ffffffff167c0100000000000000000000000000000000000000000000000000000000028152600401808573ffffffffffffffffffffffffffffffffffffffff1673ffffffffffffffffffffffffffffffffffffffff1681526020018481526020018373ffffffffffffffffffffffffffffffffffffffff1673ffffffffffffffffffffffffffffffffffffffff1681526020018273ffffffffffffffffffffffffffffffffffffffff1673ffffffffffffffffffffffffffffffffffffffff168152602001945050505050600060405180830381600087803b151561078e57600080fd5b6102c65a03f1151561079f57600080fd5b5050505b5b5092915050565b6000806000806000808894506000915060009050600160009054906101000a900473ffffffffffffffffffffffffffffffffffffffff1673ffffffffffffffffffffffffffffffffffffffff168973ffffffffffffffffffffffffffffffffffffffff16148015610821575061082089610f12565b5b15610ae8576001915060055460065481151561083957fe5b0488029350600360009054906101000a900473ffffffffffffffffffffffffffffffffffffffff1692508473ffffffffffffffffffffffffffffffffffffffff1663eee82609600260009054906101000a900473ffffffffffffffffffffffffffffffffffffffff168a8d8b6040518563ffffffff167c0100000000000000000000000000000000000000000000000000000000028152600401808573ffffffffffffffffffffffffffffffffffffffff1673ffffffffffffffffffffffffffffffffffffffff1681526020018481526020018373ffffffffffffffffffffffffffffffffffffffff1673ffffffffffffffffffffffffffffffffffffffff1681526020018273ffffffffffffffffffffffffffffffffffffffff1673ffffffffffffffffffffffffffffffffffffffff168152602001945050505050600060405180830381600087803b151561098f57600080fd5b6102c65a03f115156109a057600080fd5b5050508273ffffffffffffffffffffffffffffffffffffffff1663eee826098b86600260009054906101000a900473ffffffffffffffffffffffffffffffffffffffff168b6040518563ffffffff167c0100000000000000000000000000000000000000000000000000000000028152600401808573ffffffffffffffffffffffffffffffffffffffff1673ffffffffffffffffffffffffffffffffffffffff1681526020018481526020018373ffffffffffffffffffffffffffffffffffffffff1673ffffffffffffffffffffffffffffffffffffffff1681526020018273ffffffffffffffffffffffffffffffffffffffff1673ffffffffffffffffffffffffffffffffffffffff168152602001945050505050600060405180830381600087803b1515610acf57600080fd5b6102c65a03f11515610ae057600080fd5b505050610db3565b610af189610f12565b15610db25760019050600654600554811515610b0957fe5b0488029350600160009054906101000a900473ffffffffffffffffffffffffffffffffffffffff1692508473ffffffffffffffffffffffffffffffffffffffff1663eee826096000809054906101000a900473ffffffffffffffffffffffffffffffffffffffff168a8d8b6040518563ffffffff167c0100000000000000000000000000000000000000000000000000000000028152600401808573ffffffffffffffffffffffffffffffffffffffff1673ffffffffffffffffffffffffffffffffffffffff1681526020018481526020018373ffffffffffffffffffffffffffffffffffffffff1673ffffffffffffffffffffffffffffffffffffffff1681526020018273ffffffffffffffffffffffffffffffffffffffff1673ffffffffffffffffffffffffffffffffffffffff168152602001945050505050600060405180830381600087803b1515610c5e57600080fd5b6102c65a03f11515610c6f57600080fd5b5050508273ffffffffffffffffffffffffffffffffffffffff1663eee826098b866000809054906101000a900473ffffffffffffffffffffffffffffffffffffffff168b6040518563ffffffff167c0100000000000000000000000000000000000000000000000000000000028152600401808573ffffffffffffffffffffffffffffffffffffffff1673ffffffffffffffffffffffffffffffffffffffff1681526020018481526020018373ffffffffffffffffffffffffffffffffffffffff1673ffffffffffffffffffffffffffffffffffffffff1681526020018273ffffffffffffffffffffffffffffffffffffffff1673ffffffffffffffffffffffffffffffffffffffff168152602001945050505050600060405180830381600087803b1515610d9d57600080fd5b6102c65a03f11515610dae57600080fd5b5050505b5b600195505050505050949350505050565b60008060008060008060008060008060009054906101000a900473ffffffffffffffffffffffffffffffffffffffff16600160009054906101000a900473ffffffffffffffffffffffffffffffffffffffff16600260009054906101000a900473ffffffffffffffffffffffffffffffffffffffff16600360009054906101000a900473ffffffffffffffffffffffffffffffffffffffff16600554600654600454600760009054906101000a900460ff16600760019054906101000a900460ff16985098509850985098509850985098509850909192939495969798565b600030905090565b600081600360006101000a81548173ffffffffffffffffffffffffffffffffffffffff021916908373ffffffffffffffffffffffffffffffffffffffff1602179055506001600760006101000a81548160ff02191690831515021790555060019050919050565b600060026004541480610f7f57506000600454148015610f7e57506000809054906101000a900473ffffffffffffffffffffffffffffffffffffffff1673ffffffffffffffffffffffffffffffffffffffff168273ffffffffffffffffffffffffffffffffffffffff16145b5b80610fe557506001600454148015610fe45750600260009054906101000a900473ffffffffffffffffffffffffffffffffffffffff1673ffffffffffffffffffffffffffffffffffffffff168273ffffffffffffffffffffffffffffffffffffffff16145b5b90509190505600a165627a7a72305820d2ca8dc35b47c87baeb439d7fb1e738e95af089685f3f553b6ea65c17813b3620029",
  "source": "pragma solidity ^0.4.16;\n\nimport \"./ThembaR.sol\";\n\n    contract Agreement {\n        address owner;\n        address ownerToken;\n        address signer;\n        address signerToken;\n        uint  direction;\n        uint left;\n        uint right;\n        bool  signed;\n        bool canPort;\n\n        function Agreement(address me, address _signer, address _ownerToken, uint _direction, uint _left, uint _right, bool _canPort) public {\n            owner = me;//should be msg.sender;\n            signer = _signer;\n            ownerToken = _ownerToken;\n            direction = _direction;\n            left = _left;\n            right = _right;\n            signed = false;\n            canPort = _canPort;\n        }\n        function signAgreement(address _signerToken) public returns(bool) {\n             //if (msg.sender == signer) {\n                     signerToken = _signerToken;\n                     signed = true;\n                    return true;\n            // }\n             //return false;    \n        }\n        function checkCredential(address _from) private view returns (bool) {\n            return (direction == 2 || (direction == 0 && _from == owner) || (direction == 1 && _from == signer));\n        }\n        function checkThis() public view returns (address) {\n            return address(this);\n        }\n\n        function getInfo() public view returns (address,address,address,address,uint,uint,uint,bool,bool) {\n             \n            return (owner,ownerToken,signer,signerToken,left,right,direction,signed,canPort);\n        }\n\n        function port(address _replaceMeWithMsgSender, address _fromToken, uint amount, address me) external returns (bool) {\n            //require(canPort);\n            //require((_fromToken == ownerToken) || (_fromToken == signerToken));\n             ThembaR tr = ThembaR(_fromToken);\n            // require(tr.balanceOf(_replaceMeWithMsgSender) >= amount);\n             uint otherAmount;\n             ThembaR otherAddress;\n             bool blockUno = false;\n             bool blockTwo = false;\n            if (_fromToken == ownerToken && checkCredential(_fromToken)) {\n                blockUno = true;\n                  otherAmount = amount*(right/left);\n                  otherAddress = ThembaR(signerToken);\n                 tr.specialTransfer(signer, amount, _replaceMeWithMsgSender, me);\n                 otherAddress.specialTransfer(_replaceMeWithMsgSender, otherAmount,signer,me);\n            } else if (checkCredential(_fromToken)) {\n                blockTwo = true;\n                  otherAmount = amount*(left/right);\n                  otherAddress = ThembaR(ownerToken);\n                 tr.specialTransfer(owner, amount, _replaceMeWithMsgSender, me);\n                 otherAddress.specialTransfer(_replaceMeWithMsgSender, otherAmount,owner, me);\n            } \n            return true;\n        }\n          function portAndPay(address _fromToken, uint amount) external returns (bool) {\n            require((_fromToken == ownerToken) || (_fromToken == signerToken));\n            ThembaR tr = ThembaR(_fromToken);\n            require(tr.balanceOf(msg.sender) >= amount);\n            if (_fromToken == ownerToken && checkCredential(_fromToken)) {\n                tr.specialTransfer(signer, amount, msg.sender, this);          \n            } else if (checkCredential(_fromToken)) {\n                tr.specialTransfer(owner, amount, msg.sender, this);\n            } \n\n        }\n    }\n",
  "sourcePath": "/home/rendani/Documents/thembaR/ThembaR/contracts/Agreement.sol",
  "compiler": {
    "name": "solc",
    "version": "0.4.18+commit.9cf6e910.Emscripten.clang"
  },
  "schemaVersion": "1.0.1",
  "updatedAt": "2018-01-30T22:32:30.176Z"
}