{
  "contractName": "Agreement",
  "abi": [
    {
      "constant": false,
      "inputs": [
        {
          "name": "_fromToken",
          "type": "address"
        },
        {
          "name": "amount",
          "type": "uint256"
        }
      ],
      "name": "port",
      "outputs": [
        {
          "name": "",
          "type": "bool"
        }
      ],
      "payable": false,
      "stateMutability": "nonpayable",
      "type": "function"
    },
    {
      "constant": false,
      "inputs": [
        {
          "name": "_arranger",
          "type": "address"
        },
        {
          "name": "_signerToken",
          "type": "address"
        }
      ],
      "name": "signArrangement",
      "outputs": [
        {
          "name": "",
          "type": "bool"
        }
      ],
      "payable": false,
      "stateMutability": "nonpayable",
      "type": "function"
    },
    {
      "inputs": [
        {
          "name": "_signer",
          "type": "address"
        },
        {
          "name": "_ownerToken",
          "type": "address"
        },
        {
          "name": "_direction",
          "type": "uint256"
        },
        {
          "name": "_left",
          "type": "uint256"
        },
        {
          "name": "_right",
          "type": "uint256"
        }
      ],
      "payable": false,
      "stateMutability": "nonpayable",
      "type": "constructor"
    }
  ],
  "bytecode": "0x6060604052341561000f57600080fd5b60405160a080610c0283398101604052808051906020019091908051906020019091908051906020019091908051906020019091908051906020019091905050336000806101000a81548173ffffffffffffffffffffffffffffffffffffffff021916908373ffffffffffffffffffffffffffffffffffffffff16021790555084600260006101000a81548173ffffffffffffffffffffffffffffffffffffffff021916908373ffffffffffffffffffffffffffffffffffffffff16021790555083600160006101000a81548173ffffffffffffffffffffffffffffffffffffffff021916908373ffffffffffffffffffffffffffffffffffffffff1602179055508260048190555081600581905550806006819055506000600760006101000a81548160ff0219169083151502179055505050505050610aad806101556000396000f30060606040526004361061004c576000357c0100000000000000000000000000000000000000000000000000000000900463ffffffff1680633fc813f614610051578063f9ffc059146100ab575b600080fd5b341561005c57600080fd5b610091600480803573ffffffffffffffffffffffffffffffffffffffff1690602001909190803590602001909190505061011b565b604051808215151515815260200191505060405180910390f35b34156100b657600080fd5b610101600480803573ffffffffffffffffffffffffffffffffffffffff1690602001909190803573ffffffffffffffffffffffffffffffffffffffff169060200190919050506108de565b604051808215151515815260200191505060405180910390f35b600080600080600160009054906101000a900473ffffffffffffffffffffffffffffffffffffffff1673ffffffffffffffffffffffffffffffffffffffff168673ffffffffffffffffffffffffffffffffffffffff1614806101ca5750600360009054906101000a900473ffffffffffffffffffffffffffffffffffffffff1673ffffffffffffffffffffffffffffffffffffffff168673ffffffffffffffffffffffffffffffffffffffff16145b15156101d557600080fd5b859250848373ffffffffffffffffffffffffffffffffffffffff166370a08231336000604051602001526040518263ffffffff167c0100000000000000000000000000000000000000000000000000000000028152600401808273ffffffffffffffffffffffffffffffffffffffff1673ffffffffffffffffffffffffffffffffffffffff168152602001915050602060405180830381600087803b151561027c57600080fd5b6102c65a03f1151561028d57600080fd5b50505060405180519050101515156102a457600080fd5b600160009054906101000a900473ffffffffffffffffffffffffffffffffffffffff1673ffffffffffffffffffffffffffffffffffffffff168673ffffffffffffffffffffffffffffffffffffffff16148015610329575061032886600260009054906101000a900473ffffffffffffffffffffffffffffffffffffffff166109a6565b5b156105ec5760055460065481151561033d57fe5b0485029150600360009054906101000a900473ffffffffffffffffffffffffffffffffffffffff1690508273ffffffffffffffffffffffffffffffffffffffff1663eee82609600260009054906101000a900473ffffffffffffffffffffffffffffffffffffffff168733306040518563ffffffff167c0100000000000000000000000000000000000000000000000000000000028152600401808573ffffffffffffffffffffffffffffffffffffffff1673ffffffffffffffffffffffffffffffffffffffff1681526020018481526020018373ffffffffffffffffffffffffffffffffffffffff1673ffffffffffffffffffffffffffffffffffffffff1681526020018273ffffffffffffffffffffffffffffffffffffffff1673ffffffffffffffffffffffffffffffffffffffff168152602001945050505050600060405180830381600087803b151561049357600080fd5b6102c65a03f115156104a457600080fd5b5050508073ffffffffffffffffffffffffffffffffffffffff1663eee826093384600260009054906101000a900473ffffffffffffffffffffffffffffffffffffffff16306040518563ffffffff167c0100000000000000000000000000000000000000000000000000000000028152600401808573ffffffffffffffffffffffffffffffffffffffff1673ffffffffffffffffffffffffffffffffffffffff1681526020018481526020018373ffffffffffffffffffffffffffffffffffffffff1673ffffffffffffffffffffffffffffffffffffffff1681526020018273ffffffffffffffffffffffffffffffffffffffff1673ffffffffffffffffffffffffffffffffffffffff168152602001945050505050600060405180830381600087803b15156105d357600080fd5b6102c65a03f115156105e457600080fd5b5050506108d5565b610617866000809054906101000a900473ffffffffffffffffffffffffffffffffffffffff166109a6565b156108d45760065460055481151561062b57fe5b0485029150600160009054906101000a900473ffffffffffffffffffffffffffffffffffffffff1690508273ffffffffffffffffffffffffffffffffffffffff1663eee8260933876000809054906101000a900473ffffffffffffffffffffffffffffffffffffffff16306040518563ffffffff167c0100000000000000000000000000000000000000000000000000000000028152600401808573ffffffffffffffffffffffffffffffffffffffff1673ffffffffffffffffffffffffffffffffffffffff1681526020018481526020018373ffffffffffffffffffffffffffffffffffffffff1673ffffffffffffffffffffffffffffffffffffffff1681526020018273ffffffffffffffffffffffffffffffffffffffff1673ffffffffffffffffffffffffffffffffffffffff168152602001945050505050600060405180830381600087803b151561078057600080fd5b6102c65a03f1151561079157600080fd5b5050508073ffffffffffffffffffffffffffffffffffffffff1663eee826096000809054906101000a900473ffffffffffffffffffffffffffffffffffffffff168433306040518563ffffffff167c0100000000000000000000000000000000000000000000000000000000028152600401808573ffffffffffffffffffffffffffffffffffffffff1673ffffffffffffffffffffffffffffffffffffffff1681526020018481526020018373ffffffffffffffffffffffffffffffffffffffff1673ffffffffffffffffffffffffffffffffffffffff1681526020018273ffffffffffffffffffffffffffffffffffffffff1673ffffffffffffffffffffffffffffffffffffffff168152602001945050505050600060405180830381600087803b15156108bf57600080fd5b6102c65a03f115156108d057600080fd5b5050505b5b50505092915050565b6000600260009054906101000a900473ffffffffffffffffffffffffffffffffffffffff1673ffffffffffffffffffffffffffffffffffffffff163373ffffffffffffffffffffffffffffffffffffffff16141561099b5781600360006101000a81548173ffffffffffffffffffffffffffffffffffffffff021916908373ffffffffffffffffffffffffffffffffffffffff1602179055506001600760006101000a81548160ff021916908315150217905550600190506109a0565b600090505b92915050565b600060026004541480610a1357506000600454148015610a1257506000809054906101000a900473ffffffffffffffffffffffffffffffffffffffff1673ffffffffffffffffffffffffffffffffffffffff168373ffffffffffffffffffffffffffffffffffffffff16145b5b80610a7957506001600454148015610a785750600260009054906101000a900473ffffffffffffffffffffffffffffffffffffffff1673ffffffffffffffffffffffffffffffffffffffff168373ffffffffffffffffffffffffffffffffffffffff16145b5b9050929150505600a165627a7a72305820826f47f9fa1ab9fc32e857e297722998c656a63e79e969bf7c41b09d8d789b0d0029",
  "source": "pragma solidity ^0.4.16;\n\nimport \"./ThembaR.sol\";\n\n    contract Agreement {\n        address owner;\n        address ownerToken;\n        address signer;\n        address signerToken;\n        uint  direction;\n        uint left;\n        uint right;\n        bool  signed;\n\n        function Agreement(address _signer, address _ownerToken, uint _direction, uint _left, uint _right) public {\n            owner = msg.sender;\n            signer = _signer;\n            ownerToken = _ownerToken;\n            direction = _direction;\n            left = _left;\n            right = _right;\n            signed = false;\n        }\n        function signArrangement(address _arranger, address _signerToken) public returns (bool) {\n             if (msg.sender == signer) {\n                     signerToken = _signerToken;\n                     signed = true;\n                     return true;\n             }\n             return false;    \n        }\n        function checkCredential(address _from, address _to) private returns (bool) {\n            return (direction == 2 || (direction == 0 && _from == owner) || (direction == 1 && _from == signer));\n        }\n        function port(address _fromToken, uint amount) external returns (bool) {\n            require((_fromToken == ownerToken) || (_fromToken == signerToken));\n            ThembaR tr = ThembaR(_fromToken);\n            require(tr.balanceOf(msg.sender) >= amount);\n            uint otherAmount;\n            ThembaR otherAddress;\n            if (_fromToken == ownerToken && checkCredential(_fromToken, signer)) {\n                 otherAmount = amount*(right/left);\n                 otherAddress = ThembaR(signerToken);\n                tr.specialTransfer(signer, amount, msg.sender, this);\n                otherAddress.specialTransfer(msg.sender, otherAmount,signer,this);\n            } else if (checkCredential(_fromToken, owner)) {\n                 otherAmount = amount*(left/right);\n                 otherAddress = ThembaR(ownerToken);\n                tr.specialTransfer(msg.sender, amount, owner, this);\n                otherAddress.specialTransfer(owner, otherAmount,msg.sender,this);\n            } \n\n        }\n         \n    }\n",
  "sourcePath": "/home/rendani/Documents/thembaR/ThembaR/contracts/Agreement.sol",
  "compiler": {
    "name": "solc",
    "version": "0.4.18+commit.9cf6e910.Emscripten.clang"
  },
  "schemaVersion": "1.0.1",
  "updatedAt": "2018-01-29T22:14:29.933Z"
}