{
  "contractName": "Agreement",
  "abi": [
    {
      "constant": false,
      "inputs": [
        {
          "name": "_fromToken",
          "type": "address"
        },
        {
          "name": "amount",
          "type": "uint256"
        }
      ],
      "name": "portAndPay",
      "outputs": [
        {
          "name": "",
          "type": "bool"
        }
      ],
      "payable": false,
      "stateMutability": "nonpayable",
      "type": "function"
    },
    {
      "constant": false,
      "inputs": [
        {
          "name": "_fromToken",
          "type": "address"
        },
        {
          "name": "amount",
          "type": "uint256"
        }
      ],
      "name": "port",
      "outputs": [
        {
          "name": "",
          "type": "bool"
        }
      ],
      "payable": false,
      "stateMutability": "nonpayable",
      "type": "function"
    },
    {
      "constant": false,
      "inputs": [
        {
          "name": "_signerToken",
          "type": "address"
        }
      ],
      "name": "signArrangement",
      "outputs": [
        {
          "name": "",
          "type": "bool"
        }
      ],
      "payable": false,
      "stateMutability": "nonpayable",
      "type": "function"
    },
    {
      "inputs": [
        {
          "name": "_signer",
          "type": "address"
        },
        {
          "name": "_ownerToken",
          "type": "address"
        },
        {
          "name": "_direction",
          "type": "uint256"
        },
        {
          "name": "_left",
          "type": "uint256"
        },
        {
          "name": "_right",
          "type": "uint256"
        },
        {
          "name": "_canPort",
          "type": "bool"
        }
      ],
      "payable": false,
      "stateMutability": "nonpayable",
      "type": "constructor"
    }
  ],
  "bytecode": "0x6060604052341561000f57600080fd5b60405160c0806110c883398101604052808051906020019091908051906020019091908051906020019091908051906020019091908051906020019091908051906020019091905050336000806101000a81548173ffffffffffffffffffffffffffffffffffffffff021916908373ffffffffffffffffffffffffffffffffffffffff16021790555085600260006101000a81548173ffffffffffffffffffffffffffffffffffffffff021916908373ffffffffffffffffffffffffffffffffffffffff16021790555084600160006101000a81548173ffffffffffffffffffffffffffffffffffffffff021916908373ffffffffffffffffffffffffffffffffffffffff1602179055508360048190555082600581905550816006819055506000600760006101000a81548160ff02191690831515021790555080600760016101000a81548160ff021916908315150217905550505050505050610f4f806101796000396000f300606060405260043610610057576000357c0100000000000000000000000000000000000000000000000000000000900463ffffffff168063034d7c531461005c5780633fc813f6146100b6578063e6a2373c14610110575b600080fd5b341561006757600080fd5b61009c600480803573ffffffffffffffffffffffffffffffffffffffff16906020019091908035906020019091905050610161565b604051808215151515815260200191505060405180910390f35b34156100c157600080fd5b6100f6600480803573ffffffffffffffffffffffffffffffffffffffff169060200190919080359060200190919050506105e9565b604051808215151515815260200191505060405180910390f35b341561011b57600080fd5b610147600480803573ffffffffffffffffffffffffffffffffffffffff16906020019091905050610d82565b604051808215151515815260200191505060405180910390f35b600080600160009054906101000a900473ffffffffffffffffffffffffffffffffffffffff1673ffffffffffffffffffffffffffffffffffffffff168473ffffffffffffffffffffffffffffffffffffffff16148061020d5750600360009054906101000a900473ffffffffffffffffffffffffffffffffffffffff1673ffffffffffffffffffffffffffffffffffffffff168473ffffffffffffffffffffffffffffffffffffffff16145b151561021857600080fd5b839050828173ffffffffffffffffffffffffffffffffffffffff166370a08231336000604051602001526040518263ffffffff167c0100000000000000000000000000000000000000000000000000000000028152600401808273ffffffffffffffffffffffffffffffffffffffff1673ffffffffffffffffffffffffffffffffffffffff168152602001915050602060405180830381600087803b15156102bf57600080fd5b6102c65a03f115156102d057600080fd5b50505060405180519050101515156102e757600080fd5b600160009054906101000a900473ffffffffffffffffffffffffffffffffffffffff1673ffffffffffffffffffffffffffffffffffffffff168473ffffffffffffffffffffffffffffffffffffffff16148015610349575061034884610e49565b5b15610493578073ffffffffffffffffffffffffffffffffffffffff1663eee82609600260009054906101000a900473ffffffffffffffffffffffffffffffffffffffff168533306040518563ffffffff167c0100000000000000000000000000000000000000000000000000000000028152600401808573ffffffffffffffffffffffffffffffffffffffff1673ffffffffffffffffffffffffffffffffffffffff1681526020018481526020018373ffffffffffffffffffffffffffffffffffffffff1673ffffffffffffffffffffffffffffffffffffffff1681526020018273ffffffffffffffffffffffffffffffffffffffff1673ffffffffffffffffffffffffffffffffffffffff168152602001945050505050600060405180830381600087803b151561047a57600080fd5b6102c65a03f1151561048b57600080fd5b5050506105e2565b61049c84610e49565b156105e1578073ffffffffffffffffffffffffffffffffffffffff1663eee826096000809054906101000a900473ffffffffffffffffffffffffffffffffffffffff168533306040518563ffffffff167c0100000000000000000000000000000000000000000000000000000000028152600401808573ffffffffffffffffffffffffffffffffffffffff1673ffffffffffffffffffffffffffffffffffffffff1681526020018481526020018373ffffffffffffffffffffffffffffffffffffffff1673ffffffffffffffffffffffffffffffffffffffff1681526020018273ffffffffffffffffffffffffffffffffffffffff1673ffffffffffffffffffffffffffffffffffffffff168152602001945050505050600060405180830381600087803b15156105cc57600080fd5b6102c65a03f115156105dd57600080fd5b5050505b5b5092915050565b600080600080600760019054906101000a900460ff16151561060a57600080fd5b600160009054906101000a900473ffffffffffffffffffffffffffffffffffffffff1673ffffffffffffffffffffffffffffffffffffffff168673ffffffffffffffffffffffffffffffffffffffff1614806106b35750600360009054906101000a900473ffffffffffffffffffffffffffffffffffffffff1673ffffffffffffffffffffffffffffffffffffffff168673ffffffffffffffffffffffffffffffffffffffff16145b15156106be57600080fd5b859250848373ffffffffffffffffffffffffffffffffffffffff166370a08231336000604051602001526040518263ffffffff167c0100000000000000000000000000000000000000000000000000000000028152600401808273ffffffffffffffffffffffffffffffffffffffff1673ffffffffffffffffffffffffffffffffffffffff168152602001915050602060405180830381600087803b151561076557600080fd5b6102c65a03f1151561077657600080fd5b505050604051805190501015151561078d57600080fd5b600160009054906101000a900473ffffffffffffffffffffffffffffffffffffffff1673ffffffffffffffffffffffffffffffffffffffff168673ffffffffffffffffffffffffffffffffffffffff161480156107ef57506107ee86610e49565b5b15610ab25760055460065481151561080357fe5b0485029150600360009054906101000a900473ffffffffffffffffffffffffffffffffffffffff1690508273ffffffffffffffffffffffffffffffffffffffff1663eee82609600260009054906101000a900473ffffffffffffffffffffffffffffffffffffffff168733306040518563ffffffff167c0100000000000000000000000000000000000000000000000000000000028152600401808573ffffffffffffffffffffffffffffffffffffffff1673ffffffffffffffffffffffffffffffffffffffff1681526020018481526020018373ffffffffffffffffffffffffffffffffffffffff1673ffffffffffffffffffffffffffffffffffffffff1681526020018273ffffffffffffffffffffffffffffffffffffffff1673ffffffffffffffffffffffffffffffffffffffff168152602001945050505050600060405180830381600087803b151561095957600080fd5b6102c65a03f1151561096a57600080fd5b5050508073ffffffffffffffffffffffffffffffffffffffff1663eee826093384600260009054906101000a900473ffffffffffffffffffffffffffffffffffffffff16306040518563ffffffff167c0100000000000000000000000000000000000000000000000000000000028152600401808573ffffffffffffffffffffffffffffffffffffffff1673ffffffffffffffffffffffffffffffffffffffff1681526020018481526020018373ffffffffffffffffffffffffffffffffffffffff1673ffffffffffffffffffffffffffffffffffffffff1681526020018273ffffffffffffffffffffffffffffffffffffffff1673ffffffffffffffffffffffffffffffffffffffff168152602001945050505050600060405180830381600087803b1515610a9957600080fd5b6102c65a03f11515610aaa57600080fd5b505050610d79565b610abb86610e49565b15610d7857600654600554811515610acf57fe5b0485029150600160009054906101000a900473ffffffffffffffffffffffffffffffffffffffff1690508273ffffffffffffffffffffffffffffffffffffffff1663eee826096000809054906101000a900473ffffffffffffffffffffffffffffffffffffffff168733306040518563ffffffff167c0100000000000000000000000000000000000000000000000000000000028152600401808573ffffffffffffffffffffffffffffffffffffffff1673ffffffffffffffffffffffffffffffffffffffff1681526020018481526020018373ffffffffffffffffffffffffffffffffffffffff1673ffffffffffffffffffffffffffffffffffffffff1681526020018273ffffffffffffffffffffffffffffffffffffffff1673ffffffffffffffffffffffffffffffffffffffff168152602001945050505050600060405180830381600087803b1515610c2457600080fd5b6102c65a03f11515610c3557600080fd5b5050508073ffffffffffffffffffffffffffffffffffffffff1663eee8260933846000809054906101000a900473ffffffffffffffffffffffffffffffffffffffff16306040518563ffffffff167c0100000000000000000000000000000000000000000000000000000000028152600401808573ffffffffffffffffffffffffffffffffffffffff1673ffffffffffffffffffffffffffffffffffffffff1681526020018481526020018373ffffffffffffffffffffffffffffffffffffffff1673ffffffffffffffffffffffffffffffffffffffff1681526020018273ffffffffffffffffffffffffffffffffffffffff1673ffffffffffffffffffffffffffffffffffffffff168152602001945050505050600060405180830381600087803b1515610d6357600080fd5b6102c65a03f11515610d7457600080fd5b5050505b5b50505092915050565b6000600260009054906101000a900473ffffffffffffffffffffffffffffffffffffffff1673ffffffffffffffffffffffffffffffffffffffff163373ffffffffffffffffffffffffffffffffffffffff161415610e3f5781600360006101000a81548173ffffffffffffffffffffffffffffffffffffffff021916908373ffffffffffffffffffffffffffffffffffffffff1602179055506001600760006101000a81548160ff02191690831515021790555060019050610e44565b600090505b919050565b600060026004541480610eb657506000600454148015610eb557506000809054906101000a900473ffffffffffffffffffffffffffffffffffffffff1673ffffffffffffffffffffffffffffffffffffffff168273ffffffffffffffffffffffffffffffffffffffff16145b5b80610f1c57506001600454148015610f1b5750600260009054906101000a900473ffffffffffffffffffffffffffffffffffffffff1673ffffffffffffffffffffffffffffffffffffffff168273ffffffffffffffffffffffffffffffffffffffff16145b5b90509190505600a165627a7a72305820725a67d549e28356b30d223cb3abbe667cfdf7d1df4086c4378099194298c3b10029",
  "source": "pragma solidity ^0.4.16;\n\nimport \"./ThembaR.sol\";\n\n    contract Agreement {\n        address owner;\n        address ownerToken;\n        address signer;\n        address signerToken;\n        uint  direction;\n        uint left;\n        uint right;\n        bool  signed;\n        bool canPort;\n\n        function Agreement(address _signer, address _ownerToken, uint _direction, uint _left, uint _right, bool _canPort) public {\n            owner = msg.sender;\n            signer = _signer;\n            ownerToken = _ownerToken;\n            direction = _direction;\n            left = _left;\n            right = _right;\n            signed = false;\n            canPort = _canPort;\n        }\n        function signArrangement(address _signerToken) public returns (bool) {\n             if (msg.sender == signer) {\n                     signerToken = _signerToken;\n                     signed = true;\n                     return true;\n             }\n             return false;    \n        }\n        function checkCredential(address _from) private view returns (bool) {\n            return (direction == 2 || (direction == 0 && _from == owner) || (direction == 1 && _from == signer));\n        }\n        function port(address _fromToken, uint amount) external returns (bool) {\n            require(canPort);\n            require((_fromToken == ownerToken) || (_fromToken == signerToken));\n            ThembaR tr = ThembaR(_fromToken);\n            require(tr.balanceOf(msg.sender) >= amount);\n            uint otherAmount;\n            ThembaR otherAddress;\n            if (_fromToken == ownerToken && checkCredential(_fromToken)) {\n                 otherAmount = amount*(right/left);\n                 otherAddress = ThembaR(signerToken);\n                tr.specialTransfer(signer, amount, msg.sender, this);\n                otherAddress.specialTransfer(msg.sender, otherAmount,signer,this);\n            } else if (checkCredential(_fromToken)) {\n                 otherAmount = amount*(left/right);\n                 otherAddress = ThembaR(ownerToken);\n                tr.specialTransfer(owner, amount, msg.sender, this);\n                otherAddress.specialTransfer(msg.sender, otherAmount,owner, this);\n            } \n\n        }\n          function portAndPay(address _fromToken, uint amount) external returns (bool) {\n            require((_fromToken == ownerToken) || (_fromToken == signerToken));\n            ThembaR tr = ThembaR(_fromToken);\n            require(tr.balanceOf(msg.sender) >= amount);\n            if (_fromToken == ownerToken && checkCredential(_fromToken)) {\n                tr.specialTransfer(signer, amount, msg.sender, this);          \n            } else if (checkCredential(_fromToken)) {\n                tr.specialTransfer(owner, amount, msg.sender, this);\n            } \n\n        }\n    }\n",
  "sourcePath": "/home/bruce/Documents/Projects/ThembaR/contracts/Agreement.sol",
  "compiler": {
    "name": "solc",
    "version": "0.4.18+commit.9cf6e910.Emscripten.clang"
  },
  "schemaVersion": "1.0.1",
  "updatedAt": "2018-01-30T06:07:49.752Z"
}