{
  "contractName": "OrganisationAgreements",
  "abi": [
    {
      "constant": false,
      "inputs": [
        {
          "name": "signer",
          "type": "address"
        }
      ],
      "name": "SignArrangement",
      "outputs": [
        {
          "name": "",
          "type": "bool"
        }
      ],
      "payable": false,
      "stateMutability": "nonpayable",
      "type": "function"
    },
    {
      "inputs": [],
      "payable": false,
      "stateMutability": "nonpayable",
      "type": "constructor"
    }
  ],
  "bytecode": "0x6060604052341561000f57600080fd5b60c58061001d6000396000f300606060405260043610603f576000357c0100000000000000000000000000000000000000000000000000000000900463ffffffff1680639b3c125c146044575b600080fd5b3415604e57600080fd5b6078600480803573ffffffffffffffffffffffffffffffffffffffff169060200190919050506092565b604051808215151515815260200191505060405180910390f35b60009190505600a165627a7a723058202e2803cd48354ffff47cd0e38838a87fcdc08d3cb8799386688a9822892ae46f0029",
  "source": "pragma solidity ^0.4.16;\n\ncontract OrganisationAgreements {\n    \n    struct Agreement {\n        address  arranger;\n        address arrangee;\n        uint  direction;\n        bool  signed;\n        mapping(uint => uint) range;\n    }\n    Agreement[] agreements;\n    //variables\n\n    //functions\n     function OrganisationAgreements ()\n{\n    }\n\n     function SignArrangement(address signer) public returns (bool) {\n         //signed ==true\n    }\n\n     \n}\n",
  "sourcePath": "/home/bruce/Documents/ThembaR/contracts/Arrangement.sol",
  "compiler": {
    "name": "solc",
    "version": "0.4.18+commit.9cf6e910.Emscripten.clang"
  },
  "schemaVersion": "1.0.1",
  "updatedAt": "2018-01-29T19:54:17.820Z"
}