{
  "contractName": "ThembaR",
  "abi": [
    {
      "constant": true,
      "inputs": [],
      "name": "name",
      "outputs": [
        {
          "name": "",
          "type": "string"
        }
      ],
      "payable": false,
      "stateMutability": "view",
      "type": "function"
    },
    {
      "constant": true,
      "inputs": [],
      "name": "totalSupply",
      "outputs": [
        {
          "name": "",
          "type": "uint256"
        }
      ],
      "payable": false,
      "stateMutability": "view",
      "type": "function"
    },
    {
      "constant": false,
      "inputs": [
        {
          "name": "_from",
          "type": "address"
        },
        {
          "name": "_to",
          "type": "address"
        },
        {
          "name": "_value",
          "type": "uint256"
        }
      ],
      "name": "transferFrom",
      "outputs": [
        {
          "name": "",
          "type": "bool"
        }
      ],
      "payable": false,
      "stateMutability": "nonpayable",
      "type": "function"
    },
    {
      "constant": false,
      "inputs": [
        {
          "name": "_arrangee",
          "type": "address"
        },
        {
          "name": "_direction",
          "type": "uint256"
        },
        {
          "name": "_left",
          "type": "uint256"
        },
        {
          "name": "_right",
          "type": "uint256"
        },
        {
          "name": "_canPort",
          "type": "bool"
        }
      ],
      "name": "addAgreement",
      "outputs": [],
      "payable": false,
      "stateMutability": "nonpayable",
      "type": "function"
    },
    {
      "constant": true,
      "inputs": [],
      "name": "INITIAL_SUPPLY",
      "outputs": [
        {
          "name": "",
          "type": "uint256"
        }
      ],
      "payable": false,
      "stateMutability": "view",
      "type": "function"
    },
    {
      "constant": true,
      "inputs": [
        {
          "name": "_owner",
          "type": "address"
        }
      ],
      "name": "balanceOf",
      "outputs": [
        {
          "name": "balance",
          "type": "uint256"
        }
      ],
      "payable": false,
      "stateMutability": "view",
      "type": "function"
    },
    {
      "constant": true,
      "inputs": [],
      "name": "getOwner",
      "outputs": [
        {
          "name": "",
          "type": "address"
        }
      ],
      "payable": false,
      "stateMutability": "view",
      "type": "function"
    },
    {
      "constant": true,
      "inputs": [
        {
          "name": "accountHolder",
          "type": "address"
        }
      ],
      "name": "getBalanceReloaded",
      "outputs": [
        {
          "name": "",
          "type": "uint256"
        }
      ],
      "payable": false,
      "stateMutability": "view",
      "type": "function"
    },
    {
      "constant": true,
      "inputs": [],
      "name": "symbol",
      "outputs": [
        {
          "name": "",
          "type": "string"
        }
      ],
      "payable": false,
      "stateMutability": "view",
      "type": "function"
    },
    {
      "constant": false,
      "inputs": [
        {
          "name": "_to",
          "type": "address"
        },
        {
          "name": "_value",
          "type": "uint256"
        }
      ],
      "name": "transfer",
      "outputs": [
        {
          "name": "",
          "type": "bool"
        }
      ],
      "payable": false,
      "stateMutability": "nonpayable",
      "type": "function"
    },
    {
      "constant": true,
      "inputs": [],
      "name": "getAgreementList",
      "outputs": [
        {
          "name": "",
          "type": "address[]"
        }
      ],
      "payable": false,
      "stateMutability": "view",
      "type": "function"
    },
    {
      "constant": false,
      "inputs": [
        {
          "name": "_agreementAddress",
          "type": "address"
        }
      ],
      "name": "signAgreement",
      "outputs": [
        {
          "name": "",
          "type": "bool"
        }
      ],
      "payable": false,
      "stateMutability": "nonpayable",
      "type": "function"
    },
    {
      "constant": false,
      "inputs": [
        {
          "name": "_to",
          "type": "address"
        },
        {
          "name": "amount",
          "type": "uint256"
        },
        {
          "name": "_from",
          "type": "address"
        },
        {
          "name": "agreement",
          "type": "address"
        }
      ],
      "name": "specialTransfer",
      "outputs": [],
      "payable": false,
      "stateMutability": "nonpayable",
      "type": "function"
    },
    {
      "inputs": [
        {
          "name": "_owner",
          "type": "address"
        },
        {
          "name": "_name",
          "type": "string"
        },
        {
          "name": "_symbol",
          "type": "string"
        }
      ],
      "payable": false,
      "stateMutability": "nonpayable",
      "type": "constructor"
    },
    {
      "anonymous": false,
      "inputs": [
        {
          "indexed": true,
          "name": "from",
          "type": "address"
        },
        {
          "indexed": true,
          "name": "to",
          "type": "address"
        },
        {
          "indexed": false,
          "name": "value",
          "type": "uint256"
        }
      ],
      "name": "Transfer",
      "type": "event"
    }
  ],
  "bytecode": "0x6060604052647c33c2ba1760065534156200001957600080fd5b6040516200236c3803806200236c8339810160405280805190602001909190805182019190602001805182019190505082600260006101000a81548173ffffffffffffffffffffffffffffffffffffffff021916908373ffffffffffffffffffffffffffffffffffffffff1602179055508160049080519060200190620000a292919062000113565b508060059080519060200190620000bb92919062000113565b506006546001819055506006546000808573ffffffffffffffffffffffffffffffffffffffff1673ffffffffffffffffffffffffffffffffffffffff16815260200190815260200160002081905550505050620001c2565b828054600181600116156101000203166002900490600052602060002090601f016020900481019282601f106200015657805160ff191683800117855562000187565b8280016001018555821562000187579182015b828111156200018657825182559160200191906001019062000169565b5b5090506200019691906200019a565b5090565b620001bf91905b80821115620001bb576000816000905550600101620001a1565b5090565b90565b61219a80620001d26000396000f3006060604052600436106100c5576000357c0100000000000000000000000000000000000000000000000000000000900463ffffffff16806306fdde03146100ca57806318160ddd1461015857806323b872dd1461018157806323e317f9146101fa5780632ff2e9dc1461025957806370a0823114610282578063893d20e8146102cf57806395504f4d1461032457806395d89b4114610371578063a9059cbb146103ff578063b39c40ab14610459578063db8ddcc9146104c3578063eee8260914610514575b600080fd5b34156100d557600080fd5b6100dd610594565b6040518080602001828103825283818151815260200191508051906020019080838360005b8381101561011d578082015181840152602081019050610102565b50505050905090810190601f16801561014a5780820380516001836020036101000a031916815260200191505b509250505060405180910390f35b341561016357600080fd5b61016b610632565b6040518082815260200191505060405180910390f35b341561018c57600080fd5b6101e0600480803573ffffffffffffffffffffffffffffffffffffffff1690602001909190803573ffffffffffffffffffffffffffffffffffffffff1690602001909190803590602001909190505061063c565b604051808215151515815260200191505060405180910390f35b341561020557600080fd5b610257600480803573ffffffffffffffffffffffffffffffffffffffff1690602001909190803590602001909190803590602001909190803590602001909190803515159060200190919050506107d4565b005b341561026457600080fd5b61026c610946565b6040518082815260200191505060405180910390f35b341561028d57600080fd5b6102b9600480803573ffffffffffffffffffffffffffffffffffffffff1690602001909190505061094c565b6040518082815260200191505060405180910390f35b34156102da57600080fd5b6102e2610994565b604051808273ffffffffffffffffffffffffffffffffffffffff1673ffffffffffffffffffffffffffffffffffffffff16815260200191505060405180910390f35b341561032f57600080fd5b61035b600480803573ffffffffffffffffffffffffffffffffffffffff169060200190919050506109be565b6040518082815260200191505060405180910390f35b341561037c57600080fd5b610384610a06565b6040518080602001828103825283818151815260200191508051906020019080838360005b838110156103c45780820151818401526020810190506103a9565b50505050905090810190601f1680156103f15780820380516001836020036101000a031916815260200191505b509250505060405180910390f35b341561040a57600080fd5b61043f600480803573ffffffffffffffffffffffffffffffffffffffff16906020019091908035906020019091905050610aa4565b604051808215151515815260200191505060405180910390f35b341561046457600080fd5b61046c610cc3565b6040518080602001828103825283818151815260200191508051906020019060200280838360005b838110156104af578082015181840152602081019050610494565b505050509050019250505060405180910390f35b34156104ce57600080fd5b6104fa600480803573ffffffffffffffffffffffffffffffffffffffff16906020019091905050610d57565b604051808215151515815260200191505060405180910390f35b341561051f57600080fd5b610592600480803573ffffffffffffffffffffffffffffffffffffffff1690602001909190803590602001909190803573ffffffffffffffffffffffffffffffffffffffff1690602001909190803573ffffffffffffffffffffffffffffffffffffffff16906020019091905050610e85565b005b60048054600181600116156101000203166002900480601f01602080910402602001604051908101604052809291908181526020018280546001816001161561010002031660029004801561062a5780601f106105ff5761010080835404028352916020019161062a565b820191906000526020600020905b81548152906001019060200180831161060d57829003601f168201915b505050505081565b6000600154905090565b600061068f826000808773ffffffffffffffffffffffffffffffffffffffff1673ffffffffffffffffffffffffffffffffffffffff16815260200190815260200160002054610f2790919063ffffffff16565b6000808673ffffffffffffffffffffffffffffffffffffffff1673ffffffffffffffffffffffffffffffffffffffff16815260200190815260200160002081905550610722826000808673ffffffffffffffffffffffffffffffffffffffff1673ffffffffffffffffffffffffffffffffffffffff16815260200190815260200160002054610f4090919063ffffffff16565b6000808573ffffffffffffffffffffffffffffffffffffffff1673ffffffffffffffffffffffffffffffffffffffff168152602001908152602001600020819055508273ffffffffffffffffffffffffffffffffffffffff168473ffffffffffffffffffffffffffffffffffffffff167fddf252ad1be2c89b69c2b068fc378daa952ba7f163c4a11628f55a4df523b3ef846040518082815260200191505060405180910390a3600190509392505050565b6000600260009054906101000a900473ffffffffffffffffffffffffffffffffffffffff16863087878787610807610f5e565b808873ffffffffffffffffffffffffffffffffffffffff1673ffffffffffffffffffffffffffffffffffffffff1681526020018773ffffffffffffffffffffffffffffffffffffffff1673ffffffffffffffffffffffffffffffffffffffff1681526020018673ffffffffffffffffffffffffffffffffffffffff1673ffffffffffffffffffffffffffffffffffffffff16815260200185815260200184815260200183815260200182151515158152602001975050505050505050604051809103906000f08015156108d957600080fd5b9050600380548060010182816108ef9190610f6e565b9160005260206000209001600083909190916101000a81548173ffffffffffffffffffffffffffffffffffffffff021916908373ffffffffffffffffffffffffffffffffffffffff16021790555050505050505050565b60065481565b60008060008373ffffffffffffffffffffffffffffffffffffffff1673ffffffffffffffffffffffffffffffffffffffff168152602001908152602001600020549050919050565b6000600260009054906101000a900473ffffffffffffffffffffffffffffffffffffffff16905090565b60008060008373ffffffffffffffffffffffffffffffffffffffff1673ffffffffffffffffffffffffffffffffffffffff168152602001908152602001600020549050919050565b60058054600181600116156101000203166002900480601f016020809104026020016040519081016040528092919081815260200182805460018160011615610100020316600290048015610a9c5780601f10610a7157610100808354040283529160200191610a9c565b820191906000526020600020905b815481529060010190602001808311610a7f57829003601f168201915b505050505081565b60008073ffffffffffffffffffffffffffffffffffffffff168373ffffffffffffffffffffffffffffffffffffffff1614151515610ae157600080fd5b6000803373ffffffffffffffffffffffffffffffffffffffff1673ffffffffffffffffffffffffffffffffffffffff168152602001908152602001600020548211151515610b2e57600080fd5b610b7f826000803373ffffffffffffffffffffffffffffffffffffffff1673ffffffffffffffffffffffffffffffffffffffff16815260200190815260200160002054610f2790919063ffffffff16565b6000803373ffffffffffffffffffffffffffffffffffffffff1673ffffffffffffffffffffffffffffffffffffffff16815260200190815260200160002081905550610c12826000808673ffffffffffffffffffffffffffffffffffffffff1673ffffffffffffffffffffffffffffffffffffffff16815260200190815260200160002054610f4090919063ffffffff16565b6000808573ffffffffffffffffffffffffffffffffffffffff1673ffffffffffffffffffffffffffffffffffffffff168152602001908152602001600020819055508273ffffffffffffffffffffffffffffffffffffffff163373ffffffffffffffffffffffffffffffffffffffff167fddf252ad1be2c89b69c2b068fc378daa952ba7f163c4a11628f55a4df523b3ef846040518082815260200191505060405180910390a36001905092915050565b610ccb610f9a565b6003805480602002602001604051908101604052809291908181526020018280548015610d4d57602002820191906000526020600020905b8160009054906101000a900473ffffffffffffffffffffffffffffffffffffffff1673ffffffffffffffffffffffffffffffffffffffff1681526020019060010190808311610d03575b5050505050905090565b6000808290508073ffffffffffffffffffffffffffffffffffffffff1663db8ddcc9306000604051602001526040518263ffffffff167c0100000000000000000000000000000000000000000000000000000000028152600401808273ffffffffffffffffffffffffffffffffffffffff1673ffffffffffffffffffffffffffffffffffffffff168152602001915050602060405180830381600087803b1515610e0057600080fd5b6102c65a03f11515610e1157600080fd5b505050604051805190505060038054806001018281610e309190610f6e565b9160005260206000209001600083909190916101000a81548173ffffffffffffffffffffffffffffffffffffffff021916908373ffffffffffffffffffffffffffffffffffffffff1602179055505050919050565b60008090505b600380549050811015610f20578173ffffffffffffffffffffffffffffffffffffffff16600382815481101515610ebe57fe5b906000526020600020900160009054906101000a900473ffffffffffffffffffffffffffffffffffffffff1673ffffffffffffffffffffffffffffffffffffffff161415610f1357610f1183868661063c565b505b8080600101915050610e8b565b5050505050565b6000828211151515610f3557fe5b818303905092915050565b6000808284019050838110151515610f5457fe5b8091505092915050565b60405161119b80610fd483390190565b815481835581811511610f9557818360005260206000209182019101610f949190610fae565b5b505050565b602060405190810160405280600081525090565b610fd091905b80821115610fcc576000816000905550600101610fb4565b5090565b9056006060604052341561000f57600080fd5b60405160e08061119b83398101604052808051906020019091908051906020019091908051906020019091908051906020019091908051906020019091908051906020019091908051906020019091905050866000806101000a81548173ffffffffffffffffffffffffffffffffffffffff021916908373ffffffffffffffffffffffffffffffffffffffff16021790555085600260006101000a81548173ffffffffffffffffffffffffffffffffffffffff021916908373ffffffffffffffffffffffffffffffffffffffff16021790555084600160006101000a81548173ffffffffffffffffffffffffffffffffffffffff021916908373ffffffffffffffffffffffffffffffffffffffff1602179055508360048190555082600581905550816006819055506000600760006101000a81548160ff02191690831515021790555080600760016101000a81548160ff02191690831515021790555050505050505050611018806101836000396000f30060606040526004361061006d576000357c0100000000000000000000000000000000000000000000000000000000900463ffffffff168063034d7c531461007257806310365461146100cc5780635a9b0b8914610164578063d52630df1461027d578063db8ddcc9146102d2575b600080fd5b341561007d57600080fd5b6100b2600480803573ffffffffffffffffffffffffffffffffffffffff16906020019091908035906020019091905050610323565b604051808215151515815260200191505060405180910390f35b34156100d757600080fd5b61014a600480803573ffffffffffffffffffffffffffffffffffffffff1690602001909190803573ffffffffffffffffffffffffffffffffffffffff1690602001909190803590602001909190803573ffffffffffffffffffffffffffffffffffffffff169060200190919050506107ab565b604051808215151515815260200191505060405180910390f35b341561016f57600080fd5b610177610dc4565b604051808a73ffffffffffffffffffffffffffffffffffffffff1673ffffffffffffffffffffffffffffffffffffffff1681526020018973ffffffffffffffffffffffffffffffffffffffff1673ffffffffffffffffffffffffffffffffffffffff1681526020018873ffffffffffffffffffffffffffffffffffffffff1673ffffffffffffffffffffffffffffffffffffffff1681526020018773ffffffffffffffffffffffffffffffffffffffff1673ffffffffffffffffffffffffffffffffffffffff1681526020018681526020018581526020018481526020018315151515815260200182151515158152602001995050505050505050505060405180910390f35b341561028857600080fd5b610290610ea3565b604051808273ffffffffffffffffffffffffffffffffffffffff1673ffffffffffffffffffffffffffffffffffffffff16815260200191505060405180910390f35b34156102dd57600080fd5b610309600480803573ffffffffffffffffffffffffffffffffffffffff16906020019091905050610eab565b604051808215151515815260200191505060405180910390f35b600080600160009054906101000a900473ffffffffffffffffffffffffffffffffffffffff1673ffffffffffffffffffffffffffffffffffffffff168473ffffffffffffffffffffffffffffffffffffffff1614806103cf5750600360009054906101000a900473ffffffffffffffffffffffffffffffffffffffff1673ffffffffffffffffffffffffffffffffffffffff168473ffffffffffffffffffffffffffffffffffffffff16145b15156103da57600080fd5b839050828173ffffffffffffffffffffffffffffffffffffffff166370a08231336000604051602001526040518263ffffffff167c0100000000000000000000000000000000000000000000000000000000028152600401808273ffffffffffffffffffffffffffffffffffffffff1673ffffffffffffffffffffffffffffffffffffffff168152602001915050602060405180830381600087803b151561048157600080fd5b6102c65a03f1151561049257600080fd5b50505060405180519050101515156104a957600080fd5b600160009054906101000a900473ffffffffffffffffffffffffffffffffffffffff1673ffffffffffffffffffffffffffffffffffffffff168473ffffffffffffffffffffffffffffffffffffffff1614801561050b575061050a84610f12565b5b15610655578073ffffffffffffffffffffffffffffffffffffffff1663eee82609600260009054906101000a900473ffffffffffffffffffffffffffffffffffffffff168533306040518563ffffffff167c0100000000000000000000000000000000000000000000000000000000028152600401808573ffffffffffffffffffffffffffffffffffffffff1673ffffffffffffffffffffffffffffffffffffffff1681526020018481526020018373ffffffffffffffffffffffffffffffffffffffff1673ffffffffffffffffffffffffffffffffffffffff1681526020018273ffffffffffffffffffffffffffffffffffffffff1673ffffffffffffffffffffffffffffffffffffffff168152602001945050505050600060405180830381600087803b151561063c57600080fd5b6102c65a03f1151561064d57600080fd5b5050506107a4565b61065e84610f12565b156107a3578073ffffffffffffffffffffffffffffffffffffffff1663eee826096000809054906101000a900473ffffffffffffffffffffffffffffffffffffffff168533306040518563ffffffff167c0100000000000000000000000000000000000000000000000000000000028152600401808573ffffffffffffffffffffffffffffffffffffffff1673ffffffffffffffffffffffffffffffffffffffff1681526020018481526020018373ffffffffffffffffffffffffffffffffffffffff1673ffffffffffffffffffffffffffffffffffffffff1681526020018273ffffffffffffffffffffffffffffffffffffffff1673ffffffffffffffffffffffffffffffffffffffff168152602001945050505050600060405180830381600087803b151561078e57600080fd5b6102c65a03f1151561079f57600080fd5b5050505b5b5092915050565b6000806000806000808894506000915060009050600160009054906101000a900473ffffffffffffffffffffffffffffffffffffffff1673ffffffffffffffffffffffffffffffffffffffff168973ffffffffffffffffffffffffffffffffffffffff16148015610821575061082089610f12565b5b15610ae8576001915060055460065481151561083957fe5b0488029350600360009054906101000a900473ffffffffffffffffffffffffffffffffffffffff1692508473ffffffffffffffffffffffffffffffffffffffff1663eee82609600260009054906101000a900473ffffffffffffffffffffffffffffffffffffffff168a8d8b6040518563ffffffff167c0100000000000000000000000000000000000000000000000000000000028152600401808573ffffffffffffffffffffffffffffffffffffffff1673ffffffffffffffffffffffffffffffffffffffff1681526020018481526020018373ffffffffffffffffffffffffffffffffffffffff1673ffffffffffffffffffffffffffffffffffffffff1681526020018273ffffffffffffffffffffffffffffffffffffffff1673ffffffffffffffffffffffffffffffffffffffff168152602001945050505050600060405180830381600087803b151561098f57600080fd5b6102c65a03f115156109a057600080fd5b5050508273ffffffffffffffffffffffffffffffffffffffff1663eee826098b86600260009054906101000a900473ffffffffffffffffffffffffffffffffffffffff168b6040518563ffffffff167c0100000000000000000000000000000000000000000000000000000000028152600401808573ffffffffffffffffffffffffffffffffffffffff1673ffffffffffffffffffffffffffffffffffffffff1681526020018481526020018373ffffffffffffffffffffffffffffffffffffffff1673ffffffffffffffffffffffffffffffffffffffff1681526020018273ffffffffffffffffffffffffffffffffffffffff1673ffffffffffffffffffffffffffffffffffffffff168152602001945050505050600060405180830381600087803b1515610acf57600080fd5b6102c65a03f11515610ae057600080fd5b505050610db3565b610af189610f12565b15610db25760019050600654600554811515610b0957fe5b0488029350600160009054906101000a900473ffffffffffffffffffffffffffffffffffffffff1692508473ffffffffffffffffffffffffffffffffffffffff1663eee826096000809054906101000a900473ffffffffffffffffffffffffffffffffffffffff168a8d8b6040518563ffffffff167c0100000000000000000000000000000000000000000000000000000000028152600401808573ffffffffffffffffffffffffffffffffffffffff1673ffffffffffffffffffffffffffffffffffffffff1681526020018481526020018373ffffffffffffffffffffffffffffffffffffffff1673ffffffffffffffffffffffffffffffffffffffff1681526020018273ffffffffffffffffffffffffffffffffffffffff1673ffffffffffffffffffffffffffffffffffffffff168152602001945050505050600060405180830381600087803b1515610c5e57600080fd5b6102c65a03f11515610c6f57600080fd5b5050508273ffffffffffffffffffffffffffffffffffffffff1663eee826098b866000809054906101000a900473ffffffffffffffffffffffffffffffffffffffff168b6040518563ffffffff167c0100000000000000000000000000000000000000000000000000000000028152600401808573ffffffffffffffffffffffffffffffffffffffff1673ffffffffffffffffffffffffffffffffffffffff1681526020018481526020018373ffffffffffffffffffffffffffffffffffffffff1673ffffffffffffffffffffffffffffffffffffffff1681526020018273ffffffffffffffffffffffffffffffffffffffff1673ffffffffffffffffffffffffffffffffffffffff168152602001945050505050600060405180830381600087803b1515610d9d57600080fd5b6102c65a03f11515610dae57600080fd5b5050505b5b600195505050505050949350505050565b60008060008060008060008060008060009054906101000a900473ffffffffffffffffffffffffffffffffffffffff16600160009054906101000a900473ffffffffffffffffffffffffffffffffffffffff16600260009054906101000a900473ffffffffffffffffffffffffffffffffffffffff16600360009054906101000a900473ffffffffffffffffffffffffffffffffffffffff16600554600654600454600760009054906101000a900460ff16600760019054906101000a900460ff16985098509850985098509850985098509850909192939495969798565b600030905090565b600081600360006101000a81548173ffffffffffffffffffffffffffffffffffffffff021916908373ffffffffffffffffffffffffffffffffffffffff1602179055506001600760006101000a81548160ff02191690831515021790555060019050919050565b600060026004541480610f7f57506000600454148015610f7e57506000809054906101000a900473ffffffffffffffffffffffffffffffffffffffff1673ffffffffffffffffffffffffffffffffffffffff168273ffffffffffffffffffffffffffffffffffffffff16145b5b80610fe557506001600454148015610fe45750600260009054906101000a900473ffffffffffffffffffffffffffffffffffffffff1673ffffffffffffffffffffffffffffffffffffffff168273ffffffffffffffffffffffffffffffffffffffff16145b5b90509190505600a165627a7a72305820a241a7083b8091f278b624412845d9accba24d7ffb9a1ef9c9c1e38b890fa7840029a165627a7a72305820ed49254ae6e29dd41450c902b788690753cf5630b727fcdbd5b0493a1573b6420029",
  "source": "pragma solidity ^0.4.16;\nimport \".././node_modules/zeppelin-solidity/contracts/token/ERC20/BasicToken.sol\";\nimport \"./Agreement.sol\";\n\ncontract ThembaR is BasicToken {\n    address owner;\n    address[] private agreements;\n    string public name; \n    string public symbol;\n    uint public INITIAL_SUPPLY = 533444344343;\n\n    function getOwner() public view returns (address) {\n        return owner;\n    }\n    function getBalanceReloaded(address accountHolder) public view returns (uint) {\n        return balances[accountHolder];\n  }\n   function addAgreement(address _arrangee, uint _direction, uint _left, uint _right, bool _canPort) public {\n           // require(owner == msg.sender);\n             address a = new Agreement(owner, _arrangee,this, _direction,  _left, _right, _canPort);\n             agreements.push(a);\n    }\n\n    function getAgreementList() public view returns (address[]) {\n        return agreements;\n    }\n   function transferFrom(address _from, address _to, uint256 _value) public returns (bool) {\n    //require(_to != address(0));\n    balances[_from] = balances[_from].sub(_value);\n    balances[_to] = balances[_to].add(_value);\n    Transfer(_from, _to, _value);\n    return true;\n  }\n    function signAgreement(address _agreementAddress) public returns(bool) {\n             //if (msg.sender == signer) {\n                Agreement toSign = Agreement(_agreementAddress);\n                toSign.signAgreement(this);\n                agreements.push(toSign);\n            // }\n             //return false;    \n        }\n   function ThembaR(address _owner, string _name, string _symbol) {\n        owner = _owner;\n        name = _name;\n        symbol = _symbol;\n        totalSupply_ = INITIAL_SUPPLY;\n        balances[_owner] = INITIAL_SUPPLY;\n    }\n     function specialTransfer(address _to, uint amount, address _from, address agreement) public {\n            for (uint i = 0; i < agreements.length; i++) {\n                if (agreements[i] == agreement) {\n                    transferFrom(_from, _to, amount);\n                }\n              }\n        }      \n    }",
  "sourcePath": "/home/bun/Projects/ThembaR/contracts/ThembaR.sol",
  "compiler": {
    "name": "solc",
    "version": "0.4.18+commit.9cf6e910.Emscripten.clang"
  },
  "schemaVersion": "1.0.1",
  "updatedAt": "2018-01-31T08:34:49.774Z"
}