{
  "contractName": "ThembaRController",
  "abi": [
    {
      "constant": true,
      "inputs": [],
      "name": "getAllTokens",
      "outputs": [
        {
          "name": "",
          "type": "address[]"
        }
      ],
      "payable": false,
      "stateMutability": "view",
      "type": "function"
    },
    {
      "constant": false,
      "inputs": [
        {
          "name": "ownerAdd",
          "type": "address"
        },
        {
          "name": "_name",
          "type": "string"
        },
        {
          "name": "_symbol",
          "type": "string"
        }
      ],
      "name": "createBizToken",
      "outputs": [],
      "payable": false,
      "stateMutability": "nonpayable",
      "type": "function"
    },
    {
      "constant": false,
      "inputs": [
        {
          "name": "i",
          "type": "uint256"
        }
      ],
      "name": "getThembaRAtIndex",
      "outputs": [
        {
          "name": "",
          "type": "address"
        }
      ],
      "payable": false,
      "stateMutability": "nonpayable",
      "type": "function"
    },
    {
      "constant": false,
      "inputs": [],
      "name": "getCustomerTokens",
      "outputs": [
        {
          "name": "",
          "type": "address[]"
        },
        {
          "name": "",
          "type": "uint256[]"
        }
      ],
      "payable": false,
      "stateMutability": "nonpayable",
      "type": "function"
    },
    {
      "constant": false,
      "inputs": [
        {
          "name": "_name",
          "type": "string"
        },
        {
          "name": "_symbol",
          "type": "string"
        }
      ],
      "name": "createNewToken",
      "outputs": [],
      "payable": false,
      "stateMutability": "nonpayable",
      "type": "function"
    },
    {
      "inputs": [],
      "payable": false,
      "stateMutability": "nonpayable",
      "type": "constructor"
    }
  ],
  "bytecode": "0x6060604052341561000f57600080fd5b33600160006101000a81548173ffffffffffffffffffffffffffffffffffffffff021916908373ffffffffffffffffffffffffffffffffffffffff1602179055506130538061005f6000396000f30060606040526004361061006d576000357c0100000000000000000000000000000000000000000000000000000000900463ffffffff1680632a5c792a1461007257806345c6b6e2146100dc578063538620701461019b57806371835108146101fe57806385ba7269146102b0575b600080fd5b341561007d57600080fd5b610085610350565b6040518080602001828103825283818151815260200191508051906020019060200280838360005b838110156100c85780820151818401526020810190506100ad565b505050509050019250505060405180910390f35b34156100e757600080fd5b610199600480803573ffffffffffffffffffffffffffffffffffffffff1690602001909190803590602001908201803590602001908080601f0160208091040260200160405190810160405280939291908181526020018383808284378201915050505050509190803590602001908201803590602001908080601f01602080910402602001604051908101604052809392919081815260200183838082843782019150505050505091905050610440565b005b34156101a657600080fd5b6101bc60048080359060200190919050506105dc565b604051808273ffffffffffffffffffffffffffffffffffffffff1673ffffffffffffffffffffffffffffffffffffffff16815260200191505060405180910390f35b341561020957600080fd5b61021161067c565b604051808060200180602001838103835285818151815260200191508051906020019060200280838360005b8381101561025857808201518184015260208101905061023d565b50505050905001838103825284818151815260200191508051906020019060200280838360005b8381101561029a57808201518184015260208101905061027f565b5050505090500194505050505060405180910390f35b34156102bb57600080fd5b61034e600480803590602001908201803590602001908080601f0160208091040260200160405190810160405280939291908181526020018383808284378201915050505050509190803590602001908201803590602001908080601f01602080910402602001604051908101604052809392919081815260200183838082843782019150505050505091905050610a6b565b005b610358610c06565b3373ffffffffffffffffffffffffffffffffffffffff16600160009054906101000a900473ffffffffffffffffffffffffffffffffffffffff1673ffffffffffffffffffffffffffffffffffffffff161415156103b457600080fd5b600080548060200260200160405190810160405280929190818152602001828054801561043657602002820191906000526020600020905b8160009054906101000a900473ffffffffffffffffffffffffffffffffffffffff1673ffffffffffffffffffffffffffffffffffffffff16815260200190600101908083116103ec575b5050505050905090565b600083838361044d610c1a565b808473ffffffffffffffffffffffffffffffffffffffff1673ffffffffffffffffffffffffffffffffffffffff1681526020018060200180602001838103835285818151815260200191508051906020019080838360005b838110156104c05780820151818401526020810190506104a5565b50505050905090810190601f1680156104ed5780820380516001836020036101000a031916815260200191505b50838103825284818151815260200191508051906020019080838360005b8381101561052657808201518184015260208101905061050b565b50505050905090810190601f1680156105535780820380516001836020036101000a031916815260200191505b5095505050505050604051809103906000f080151561057157600080fd5b9050600080548060010182816105879190610c2a565b9160005260206000209001600083909190916101000a81548173ffffffffffffffffffffffffffffffffffffffff021916908373ffffffffffffffffffffffffffffffffffffffff1602179055505050505050565b60003373ffffffffffffffffffffffffffffffffffffffff16600160009054906101000a900473ffffffffffffffffffffffffffffffffffffffff1673ffffffffffffffffffffffffffffffffffffffff1614151561063a57600080fd5b60008281548110151561064957fe5b906000526020600020900160009054906101000a900473ffffffffffffffffffffffffffffffffffffffff169050919050565b610684610c06565b61068c610c56565b600080600080600091505b600080549050821015610983576000828154811015156106b357fe5b906000526020600020900160009054906101000a900473ffffffffffffffffffffffffffffffffffffffff16905060008173ffffffffffffffffffffffffffffffffffffffff166370a08231336000604051602001526040518263ffffffff167c0100000000000000000000000000000000000000000000000000000000028152600401808273ffffffffffffffffffffffffffffffffffffffff1673ffffffffffffffffffffffffffffffffffffffff168152602001915050602060405180830381600087803b151561078657600080fd5b6102c65a03f1151561079757600080fd5b50505060405180519050101515610976578380548060010182816107bb9190610c2a565b916000526020600020900160008373ffffffffffffffffffffffffffffffffffffffff1663893d20e86000604051602001526040518163ffffffff167c0100000000000000000000000000000000000000000000000000000000028152600401602060405180830381600087803b151561083457600080fd5b6102c65a03f1151561084557600080fd5b50505060405180519050909190916101000a81548173ffffffffffffffffffffffffffffffffffffffff021916908373ffffffffffffffffffffffffffffffffffffffff160217905550508280548060010182816108a39190610c6a565b916000526020600020900160008373ffffffffffffffffffffffffffffffffffffffff166370a08231336000604051602001526040518263ffffffff167c0100000000000000000000000000000000000000000000000000000000028152600401808273ffffffffffffffffffffffffffffffffffffffff1673ffffffffffffffffffffffffffffffffffffffff168152602001915050602060405180830381600087803b151561095357600080fd5b6102c65a03f1151561096457600080fd5b50505060405180519050909190915055505b8180600101925050610697565b838381805480602002602001604051908101604052809291908181526020018280548015610a0657602002820191906000526020600020905b8160009054906101000a900473ffffffffffffffffffffffffffffffffffffffff1673ffffffffffffffffffffffffffffffffffffffff16815260200190600101908083116109bc575b5050505050915080805480602002602001604051908101604052809291908181526020018280548015610a5857602002820191906000526020600020905b815481526020019060010190808311610a44575b5050505050905095509550505050509091565b6000338383610a78610c1a565b808473ffffffffffffffffffffffffffffffffffffffff1673ffffffffffffffffffffffffffffffffffffffff1681526020018060200180602001838103835285818151815260200191508051906020019080838360005b83811015610aeb578082015181840152602081019050610ad0565b50505050905090810190601f168015610b185780820380516001836020036101000a031916815260200191505b50838103825284818151815260200191508051906020019080838360005b83811015610b51578082015181840152602081019050610b36565b50505050905090810190601f168015610b7e5780820380516001836020036101000a031916815260200191505b5095505050505050604051809103906000f0801515610b9c57600080fd5b905060008054806001018281610bb29190610c2a565b9160005260206000209001600083909190916101000a81548173ffffffffffffffffffffffffffffffffffffffff021916908373ffffffffffffffffffffffffffffffffffffffff16021790555050505050565b602060405190810160405280600081525090565b60405161236c80610cbc83390190565b815481835581811511610c5157818360005260206000209182019101610c509190610c96565b5b505050565b602060405190810160405280600081525090565b815481835581811511610c9157818360005260206000209182019101610c909190610c96565b5b505050565b610cb891905b80821115610cb4576000816000905550600101610c9c565b5090565b9056006060604052647c33c2ba1760065534156200001957600080fd5b6040516200236c3803806200236c8339810160405280805190602001909190805182019190602001805182019190505082600260006101000a81548173ffffffffffffffffffffffffffffffffffffffff021916908373ffffffffffffffffffffffffffffffffffffffff1602179055508160049080519060200190620000a292919062000113565b508060059080519060200190620000bb92919062000113565b506006546001819055506006546000808573ffffffffffffffffffffffffffffffffffffffff1673ffffffffffffffffffffffffffffffffffffffff16815260200190815260200160002081905550505050620001c2565b828054600181600116156101000203166002900490600052602060002090601f016020900481019282601f106200015657805160ff191683800117855562000187565b8280016001018555821562000187579182015b828111156200018657825182559160200191906001019062000169565b5b5090506200019691906200019a565b5090565b620001bf91905b80821115620001bb576000816000905550600101620001a1565b5090565b90565b61219a80620001d26000396000f3006060604052600436106100c5576000357c0100000000000000000000000000000000000000000000000000000000900463ffffffff16806306fdde03146100ca57806318160ddd1461015857806323b872dd1461018157806323e317f9146101fa5780632ff2e9dc1461025957806370a0823114610282578063893d20e8146102cf57806395504f4d1461032457806395d89b4114610371578063a9059cbb146103ff578063b39c40ab14610459578063db8ddcc9146104c3578063eee8260914610514575b600080fd5b34156100d557600080fd5b6100dd610594565b6040518080602001828103825283818151815260200191508051906020019080838360005b8381101561011d578082015181840152602081019050610102565b50505050905090810190601f16801561014a5780820380516001836020036101000a031916815260200191505b509250505060405180910390f35b341561016357600080fd5b61016b610632565b6040518082815260200191505060405180910390f35b341561018c57600080fd5b6101e0600480803573ffffffffffffffffffffffffffffffffffffffff1690602001909190803573ffffffffffffffffffffffffffffffffffffffff1690602001909190803590602001909190505061063c565b604051808215151515815260200191505060405180910390f35b341561020557600080fd5b610257600480803573ffffffffffffffffffffffffffffffffffffffff1690602001909190803590602001909190803590602001909190803590602001909190803515159060200190919050506107d4565b005b341561026457600080fd5b61026c610946565b6040518082815260200191505060405180910390f35b341561028d57600080fd5b6102b9600480803573ffffffffffffffffffffffffffffffffffffffff1690602001909190505061094c565b6040518082815260200191505060405180910390f35b34156102da57600080fd5b6102e2610994565b604051808273ffffffffffffffffffffffffffffffffffffffff1673ffffffffffffffffffffffffffffffffffffffff16815260200191505060405180910390f35b341561032f57600080fd5b61035b600480803573ffffffffffffffffffffffffffffffffffffffff169060200190919050506109be565b6040518082815260200191505060405180910390f35b341561037c57600080fd5b610384610a06565b6040518080602001828103825283818151815260200191508051906020019080838360005b838110156103c45780820151818401526020810190506103a9565b50505050905090810190601f1680156103f15780820380516001836020036101000a031916815260200191505b509250505060405180910390f35b341561040a57600080fd5b61043f600480803573ffffffffffffffffffffffffffffffffffffffff16906020019091908035906020019091905050610aa4565b604051808215151515815260200191505060405180910390f35b341561046457600080fd5b61046c610cc3565b6040518080602001828103825283818151815260200191508051906020019060200280838360005b838110156104af578082015181840152602081019050610494565b505050509050019250505060405180910390f35b34156104ce57600080fd5b6104fa600480803573ffffffffffffffffffffffffffffffffffffffff16906020019091905050610d57565b604051808215151515815260200191505060405180910390f35b341561051f57600080fd5b610592600480803573ffffffffffffffffffffffffffffffffffffffff1690602001909190803590602001909190803573ffffffffffffffffffffffffffffffffffffffff1690602001909190803573ffffffffffffffffffffffffffffffffffffffff16906020019091905050610e85565b005b60048054600181600116156101000203166002900480601f01602080910402602001604051908101604052809291908181526020018280546001816001161561010002031660029004801561062a5780601f106105ff5761010080835404028352916020019161062a565b820191906000526020600020905b81548152906001019060200180831161060d57829003601f168201915b505050505081565b6000600154905090565b600061068f826000808773ffffffffffffffffffffffffffffffffffffffff1673ffffffffffffffffffffffffffffffffffffffff16815260200190815260200160002054610f2790919063ffffffff16565b6000808673ffffffffffffffffffffffffffffffffffffffff1673ffffffffffffffffffffffffffffffffffffffff16815260200190815260200160002081905550610722826000808673ffffffffffffffffffffffffffffffffffffffff1673ffffffffffffffffffffffffffffffffffffffff16815260200190815260200160002054610f4090919063ffffffff16565b6000808573ffffffffffffffffffffffffffffffffffffffff1673ffffffffffffffffffffffffffffffffffffffff168152602001908152602001600020819055508273ffffffffffffffffffffffffffffffffffffffff168473ffffffffffffffffffffffffffffffffffffffff167fddf252ad1be2c89b69c2b068fc378daa952ba7f163c4a11628f55a4df523b3ef846040518082815260200191505060405180910390a3600190509392505050565b6000600260009054906101000a900473ffffffffffffffffffffffffffffffffffffffff16863087878787610807610f5e565b808873ffffffffffffffffffffffffffffffffffffffff1673ffffffffffffffffffffffffffffffffffffffff1681526020018773ffffffffffffffffffffffffffffffffffffffff1673ffffffffffffffffffffffffffffffffffffffff1681526020018673ffffffffffffffffffffffffffffffffffffffff1673ffffffffffffffffffffffffffffffffffffffff16815260200185815260200184815260200183815260200182151515158152602001975050505050505050604051809103906000f08015156108d957600080fd5b9050600380548060010182816108ef9190610f6e565b9160005260206000209001600083909190916101000a81548173ffffffffffffffffffffffffffffffffffffffff021916908373ffffffffffffffffffffffffffffffffffffffff16021790555050505050505050565b60065481565b60008060008373ffffffffffffffffffffffffffffffffffffffff1673ffffffffffffffffffffffffffffffffffffffff168152602001908152602001600020549050919050565b6000600260009054906101000a900473ffffffffffffffffffffffffffffffffffffffff16905090565b60008060008373ffffffffffffffffffffffffffffffffffffffff1673ffffffffffffffffffffffffffffffffffffffff168152602001908152602001600020549050919050565b60058054600181600116156101000203166002900480601f016020809104026020016040519081016040528092919081815260200182805460018160011615610100020316600290048015610a9c5780601f10610a7157610100808354040283529160200191610a9c565b820191906000526020600020905b815481529060010190602001808311610a7f57829003601f168201915b505050505081565b60008073ffffffffffffffffffffffffffffffffffffffff168373ffffffffffffffffffffffffffffffffffffffff1614151515610ae157600080fd5b6000803373ffffffffffffffffffffffffffffffffffffffff1673ffffffffffffffffffffffffffffffffffffffff168152602001908152602001600020548211151515610b2e57600080fd5b610b7f826000803373ffffffffffffffffffffffffffffffffffffffff1673ffffffffffffffffffffffffffffffffffffffff16815260200190815260200160002054610f2790919063ffffffff16565b6000803373ffffffffffffffffffffffffffffffffffffffff1673ffffffffffffffffffffffffffffffffffffffff16815260200190815260200160002081905550610c12826000808673ffffffffffffffffffffffffffffffffffffffff1673ffffffffffffffffffffffffffffffffffffffff16815260200190815260200160002054610f4090919063ffffffff16565b6000808573ffffffffffffffffffffffffffffffffffffffff1673ffffffffffffffffffffffffffffffffffffffff168152602001908152602001600020819055508273ffffffffffffffffffffffffffffffffffffffff163373ffffffffffffffffffffffffffffffffffffffff167fddf252ad1be2c89b69c2b068fc378daa952ba7f163c4a11628f55a4df523b3ef846040518082815260200191505060405180910390a36001905092915050565b610ccb610f9a565b6003805480602002602001604051908101604052809291908181526020018280548015610d4d57602002820191906000526020600020905b8160009054906101000a900473ffffffffffffffffffffffffffffffffffffffff1673ffffffffffffffffffffffffffffffffffffffff1681526020019060010190808311610d03575b5050505050905090565b6000808290508073ffffffffffffffffffffffffffffffffffffffff1663db8ddcc9306000604051602001526040518263ffffffff167c0100000000000000000000000000000000000000000000000000000000028152600401808273ffffffffffffffffffffffffffffffffffffffff1673ffffffffffffffffffffffffffffffffffffffff168152602001915050602060405180830381600087803b1515610e0057600080fd5b6102c65a03f11515610e1157600080fd5b505050604051805190505060038054806001018281610e309190610f6e565b9160005260206000209001600083909190916101000a81548173ffffffffffffffffffffffffffffffffffffffff021916908373ffffffffffffffffffffffffffffffffffffffff1602179055505050919050565b60008090505b600380549050811015610f20578173ffffffffffffffffffffffffffffffffffffffff16600382815481101515610ebe57fe5b906000526020600020900160009054906101000a900473ffffffffffffffffffffffffffffffffffffffff1673ffffffffffffffffffffffffffffffffffffffff161415610f1357610f1183868661063c565b505b8080600101915050610e8b565b5050505050565b6000828211151515610f3557fe5b818303905092915050565b6000808284019050838110151515610f5457fe5b8091505092915050565b60405161119b80610fd483390190565b815481835581811511610f9557818360005260206000209182019101610f949190610fae565b5b505050565b602060405190810160405280600081525090565b610fd091905b80821115610fcc576000816000905550600101610fb4565b5090565b9056006060604052341561000f57600080fd5b60405160e08061119b83398101604052808051906020019091908051906020019091908051906020019091908051906020019091908051906020019091908051906020019091908051906020019091905050866000806101000a81548173ffffffffffffffffffffffffffffffffffffffff021916908373ffffffffffffffffffffffffffffffffffffffff16021790555085600260006101000a81548173ffffffffffffffffffffffffffffffffffffffff021916908373ffffffffffffffffffffffffffffffffffffffff16021790555084600160006101000a81548173ffffffffffffffffffffffffffffffffffffffff021916908373ffffffffffffffffffffffffffffffffffffffff1602179055508360048190555082600581905550816006819055506000600760006101000a81548160ff02191690831515021790555080600760016101000a81548160ff02191690831515021790555050505050505050611018806101836000396000f30060606040526004361061006d576000357c0100000000000000000000000000000000000000000000000000000000900463ffffffff168063034d7c531461007257806310365461146100cc5780635a9b0b8914610164578063d52630df1461027d578063db8ddcc9146102d2575b600080fd5b341561007d57600080fd5b6100b2600480803573ffffffffffffffffffffffffffffffffffffffff16906020019091908035906020019091905050610323565b604051808215151515815260200191505060405180910390f35b34156100d757600080fd5b61014a600480803573ffffffffffffffffffffffffffffffffffffffff1690602001909190803573ffffffffffffffffffffffffffffffffffffffff1690602001909190803590602001909190803573ffffffffffffffffffffffffffffffffffffffff169060200190919050506107ab565b604051808215151515815260200191505060405180910390f35b341561016f57600080fd5b610177610dc4565b604051808a73ffffffffffffffffffffffffffffffffffffffff1673ffffffffffffffffffffffffffffffffffffffff1681526020018973ffffffffffffffffffffffffffffffffffffffff1673ffffffffffffffffffffffffffffffffffffffff1681526020018873ffffffffffffffffffffffffffffffffffffffff1673ffffffffffffffffffffffffffffffffffffffff1681526020018773ffffffffffffffffffffffffffffffffffffffff1673ffffffffffffffffffffffffffffffffffffffff1681526020018681526020018581526020018481526020018315151515815260200182151515158152602001995050505050505050505060405180910390f35b341561028857600080fd5b610290610ea3565b604051808273ffffffffffffffffffffffffffffffffffffffff1673ffffffffffffffffffffffffffffffffffffffff16815260200191505060405180910390f35b34156102dd57600080fd5b610309600480803573ffffffffffffffffffffffffffffffffffffffff16906020019091905050610eab565b604051808215151515815260200191505060405180910390f35b600080600160009054906101000a900473ffffffffffffffffffffffffffffffffffffffff1673ffffffffffffffffffffffffffffffffffffffff168473ffffffffffffffffffffffffffffffffffffffff1614806103cf5750600360009054906101000a900473ffffffffffffffffffffffffffffffffffffffff1673ffffffffffffffffffffffffffffffffffffffff168473ffffffffffffffffffffffffffffffffffffffff16145b15156103da57600080fd5b839050828173ffffffffffffffffffffffffffffffffffffffff166370a08231336000604051602001526040518263ffffffff167c0100000000000000000000000000000000000000000000000000000000028152600401808273ffffffffffffffffffffffffffffffffffffffff1673ffffffffffffffffffffffffffffffffffffffff168152602001915050602060405180830381600087803b151561048157600080fd5b6102c65a03f1151561049257600080fd5b50505060405180519050101515156104a957600080fd5b600160009054906101000a900473ffffffffffffffffffffffffffffffffffffffff1673ffffffffffffffffffffffffffffffffffffffff168473ffffffffffffffffffffffffffffffffffffffff1614801561050b575061050a84610f12565b5b15610655578073ffffffffffffffffffffffffffffffffffffffff1663eee82609600260009054906101000a900473ffffffffffffffffffffffffffffffffffffffff168533306040518563ffffffff167c0100000000000000000000000000000000000000000000000000000000028152600401808573ffffffffffffffffffffffffffffffffffffffff1673ffffffffffffffffffffffffffffffffffffffff1681526020018481526020018373ffffffffffffffffffffffffffffffffffffffff1673ffffffffffffffffffffffffffffffffffffffff1681526020018273ffffffffffffffffffffffffffffffffffffffff1673ffffffffffffffffffffffffffffffffffffffff168152602001945050505050600060405180830381600087803b151561063c57600080fd5b6102c65a03f1151561064d57600080fd5b5050506107a4565b61065e84610f12565b156107a3578073ffffffffffffffffffffffffffffffffffffffff1663eee826096000809054906101000a900473ffffffffffffffffffffffffffffffffffffffff168533306040518563ffffffff167c0100000000000000000000000000000000000000000000000000000000028152600401808573ffffffffffffffffffffffffffffffffffffffff1673ffffffffffffffffffffffffffffffffffffffff1681526020018481526020018373ffffffffffffffffffffffffffffffffffffffff1673ffffffffffffffffffffffffffffffffffffffff1681526020018273ffffffffffffffffffffffffffffffffffffffff1673ffffffffffffffffffffffffffffffffffffffff168152602001945050505050600060405180830381600087803b151561078e57600080fd5b6102c65a03f1151561079f57600080fd5b5050505b5b5092915050565b6000806000806000808894506000915060009050600160009054906101000a900473ffffffffffffffffffffffffffffffffffffffff1673ffffffffffffffffffffffffffffffffffffffff168973ffffffffffffffffffffffffffffffffffffffff16148015610821575061082089610f12565b5b15610ae8576001915060055460065481151561083957fe5b0488029350600360009054906101000a900473ffffffffffffffffffffffffffffffffffffffff1692508473ffffffffffffffffffffffffffffffffffffffff1663eee82609600260009054906101000a900473ffffffffffffffffffffffffffffffffffffffff168a8d8b6040518563ffffffff167c0100000000000000000000000000000000000000000000000000000000028152600401808573ffffffffffffffffffffffffffffffffffffffff1673ffffffffffffffffffffffffffffffffffffffff1681526020018481526020018373ffffffffffffffffffffffffffffffffffffffff1673ffffffffffffffffffffffffffffffffffffffff1681526020018273ffffffffffffffffffffffffffffffffffffffff1673ffffffffffffffffffffffffffffffffffffffff168152602001945050505050600060405180830381600087803b151561098f57600080fd5b6102c65a03f115156109a057600080fd5b5050508273ffffffffffffffffffffffffffffffffffffffff1663eee826098b86600260009054906101000a900473ffffffffffffffffffffffffffffffffffffffff168b6040518563ffffffff167c0100000000000000000000000000000000000000000000000000000000028152600401808573ffffffffffffffffffffffffffffffffffffffff1673ffffffffffffffffffffffffffffffffffffffff1681526020018481526020018373ffffffffffffffffffffffffffffffffffffffff1673ffffffffffffffffffffffffffffffffffffffff1681526020018273ffffffffffffffffffffffffffffffffffffffff1673ffffffffffffffffffffffffffffffffffffffff168152602001945050505050600060405180830381600087803b1515610acf57600080fd5b6102c65a03f11515610ae057600080fd5b505050610db3565b610af189610f12565b15610db25760019050600654600554811515610b0957fe5b0488029350600160009054906101000a900473ffffffffffffffffffffffffffffffffffffffff1692508473ffffffffffffffffffffffffffffffffffffffff1663eee826096000809054906101000a900473ffffffffffffffffffffffffffffffffffffffff168a8d8b6040518563ffffffff167c0100000000000000000000000000000000000000000000000000000000028152600401808573ffffffffffffffffffffffffffffffffffffffff1673ffffffffffffffffffffffffffffffffffffffff1681526020018481526020018373ffffffffffffffffffffffffffffffffffffffff1673ffffffffffffffffffffffffffffffffffffffff1681526020018273ffffffffffffffffffffffffffffffffffffffff1673ffffffffffffffffffffffffffffffffffffffff168152602001945050505050600060405180830381600087803b1515610c5e57600080fd5b6102c65a03f11515610c6f57600080fd5b5050508273ffffffffffffffffffffffffffffffffffffffff1663eee826098b866000809054906101000a900473ffffffffffffffffffffffffffffffffffffffff168b6040518563ffffffff167c0100000000000000000000000000000000000000000000000000000000028152600401808573ffffffffffffffffffffffffffffffffffffffff1673ffffffffffffffffffffffffffffffffffffffff1681526020018481526020018373ffffffffffffffffffffffffffffffffffffffff1673ffffffffffffffffffffffffffffffffffffffff1681526020018273ffffffffffffffffffffffffffffffffffffffff1673ffffffffffffffffffffffffffffffffffffffff168152602001945050505050600060405180830381600087803b1515610d9d57600080fd5b6102c65a03f11515610dae57600080fd5b5050505b5b600195505050505050949350505050565b60008060008060008060008060008060009054906101000a900473ffffffffffffffffffffffffffffffffffffffff16600160009054906101000a900473ffffffffffffffffffffffffffffffffffffffff16600260009054906101000a900473ffffffffffffffffffffffffffffffffffffffff16600360009054906101000a900473ffffffffffffffffffffffffffffffffffffffff16600554600654600454600760009054906101000a900460ff16600760019054906101000a900460ff16985098509850985098509850985098509850909192939495969798565b600030905090565b600081600360006101000a81548173ffffffffffffffffffffffffffffffffffffffff021916908373ffffffffffffffffffffffffffffffffffffffff1602179055506001600760006101000a81548160ff02191690831515021790555060019050919050565b600060026004541480610f7f57506000600454148015610f7e57506000809054906101000a900473ffffffffffffffffffffffffffffffffffffffff1673ffffffffffffffffffffffffffffffffffffffff168273ffffffffffffffffffffffffffffffffffffffff16145b5b80610fe557506001600454148015610fe45750600260009054906101000a900473ffffffffffffffffffffffffffffffffffffffff1673ffffffffffffffffffffffffffffffffffffffff168273ffffffffffffffffffffffffffffffffffffffff16145b5b90509190505600a165627a7a72305820d2ca8dc35b47c87baeb439d7fb1e738e95af089685f3f553b6ea65c17813b3620029a165627a7a72305820a7be03543b4bf08fc0eae2251db010536cebce19952b9e68babfee1738dda8b70029a165627a7a723058208d11df8d583426e645cb99a7730c7605120945bd3f3b6c5bba9ee86a70894d9c0029",
  "source": "pragma solidity ^0.4.16;\nimport \"./ThembaR.sol\";\n\ncontract ThembaRController {\n    address[] private tokens;\n    address _owner;\n    function ThembaRController() public {\n        _owner = msg.sender;\n    }\n    function createNewToken(string _name, string _symbol) public { //business should call this\n        ThembaR newToken = new ThembaR(msg.sender, _name, _symbol);\n        tokens.push(newToken);\n    }\n     function createBizToken(address ownerAdd, string _name, string _symbol) public { //business should call this\n        ThembaR newToken = new ThembaR(ownerAdd, _name, _symbol);\n        tokens.push(newToken);\n    }\n    function getAllTokens() public view returns (address[]) {\n        require(_owner == msg.sender);\n        return tokens; \n    }\n    function getThembaRAtIndex(uint i) returns (ThembaR) {\n         require(_owner == msg.sender);\n         return ThembaR(tokens[i]);\n    }\n    function getCustomerTokens() external returns (address[], uint[]) {\n        address[] tokenOwners;\n        uint[] balances;\n        for (uint i = 0; i < tokens.length;i++) {\n            ThembaR temp = ThembaR(tokens[i]);\n            if (temp.balanceOf(msg.sender) >= 0) {\n                tokenOwners.push(temp.getOwner());\n                balances.push(temp.balanceOf(msg.sender));\n            }\n        }\n        return (tokenOwners, balances);\n    }\n}\n\n",
  "sourcePath": "/home/rendani/Documents/thembaR/ThembaR/contracts/ThembaRController.sol",
  "compiler": {
    "name": "solc",
    "version": "0.4.18+commit.9cf6e910.Emscripten.clang"
  },
  "schemaVersion": "1.0.1",
  "updatedAt": "2018-01-30T22:32:30.179Z"
}