{
  "contractName": "ThembaR",
  "abi": [
    {
      "constant": true,
      "inputs": [],
      "name": "name",
      "outputs": [
        {
          "name": "",
          "type": "string"
        }
      ],
      "payable": false,
      "stateMutability": "view",
      "type": "function"
    },
    {
      "constant": true,
      "inputs": [],
      "name": "totalSupply",
      "outputs": [
        {
          "name": "",
          "type": "uint256"
        }
      ],
      "payable": false,
      "stateMutability": "view",
      "type": "function"
    },
    {
      "constant": true,
      "inputs": [],
      "name": "INITIAL_SUPPLY",
      "outputs": [
        {
          "name": "",
          "type": "uint256"
        }
      ],
      "payable": false,
      "stateMutability": "view",
      "type": "function"
    },
    {
      "constant": true,
      "inputs": [],
      "name": "decimals",
      "outputs": [
        {
          "name": "",
          "type": "uint256"
        }
      ],
      "payable": false,
      "stateMutability": "view",
      "type": "function"
    },
    {
      "constant": true,
      "inputs": [
        {
          "name": "_owner",
          "type": "address"
        }
      ],
      "name": "balanceOf",
      "outputs": [
        {
          "name": "balance",
          "type": "uint256"
        }
      ],
      "payable": false,
      "stateMutability": "view",
      "type": "function"
    },
    {
      "constant": true,
      "inputs": [],
      "name": "symbol",
      "outputs": [
        {
          "name": "",
          "type": "string"
        }
      ],
      "payable": false,
      "stateMutability": "view",
      "type": "function"
    },
    {
      "constant": false,
      "inputs": [
        {
          "name": "_to",
          "type": "address"
        },
        {
          "name": "_value",
          "type": "uint256"
        }
      ],
      "name": "transfer",
      "outputs": [
        {
          "name": "",
          "type": "bool"
        }
      ],
      "payable": false,
      "stateMutability": "nonpayable",
      "type": "function"
    },
    {
      "inputs": [],
      "payable": false,
      "stateMutability": "nonpayable",
      "type": "constructor"
    },
    {
      "anonymous": false,
      "inputs": [
        {
          "indexed": true,
          "name": "from",
          "type": "address"
        },
        {
          "indexed": true,
          "name": "to",
          "type": "address"
        },
        {
          "indexed": false,
          "name": "value",
          "type": "uint256"
        }
      ],
      "name": "Transfer",
      "type": "event"
    }
  ],
  "bytecode": "0x60606040526040805190810160405280600c81526020017f4578616d706c65546f6b656e00000000000000000000000000000000000000008152506004908051906020019061004f92919061010c565b506040805190810160405280600381526020017f45475400000000000000000000000000000000000000000000000000000000008152506005908051906020019061009b92919061010c565b506012600655600654600a0a6127100260075534156100b957600080fd5b6007546001819055506007546000803373ffffffffffffffffffffffffffffffffffffffff1673ffffffffffffffffffffffffffffffffffffffff168152602001908152602001600020819055506101b1565b828054600181600116156101000203166002900490600052602060002090601f016020900481019282601f1061014d57805160ff191683800117855561017b565b8280016001018555821561017b579182015b8281111561017a57825182559160200191906001019061015f565b5b509050610188919061018c565b5090565b6101ae91905b808211156101aa576000816000905550600101610192565b5090565b90565b6106e2806101c06000396000f300606060405260043610610083576000357c0100000000000000000000000000000000000000000000000000000000900463ffffffff16806306fdde031461008857806318160ddd146101165780632ff2e9dc1461013f578063313ce5671461016857806370a082311461019157806395d89b41146101de578063a9059cbb1461026c575b600080fd5b341561009357600080fd5b61009b6102c6565b6040518080602001828103825283818151815260200191508051906020019080838360005b838110156100db5780820151818401526020810190506100c0565b50505050905090810190601f1680156101085780820380516001836020036101000a031916815260200191505b509250505060405180910390f35b341561012157600080fd5b610129610364565b6040518082815260200191505060405180910390f35b341561014a57600080fd5b61015261036e565b6040518082815260200191505060405180910390f35b341561017357600080fd5b61017b610374565b6040518082815260200191505060405180910390f35b341561019c57600080fd5b6101c8600480803573ffffffffffffffffffffffffffffffffffffffff1690602001909190505061037a565b6040518082815260200191505060405180910390f35b34156101e957600080fd5b6101f16103c2565b6040518080602001828103825283818151815260200191508051906020019080838360005b83811015610231578082015181840152602081019050610216565b50505050905090810190601f16801561025e5780820380516001836020036101000a031916815260200191505b509250505060405180910390f35b341561027757600080fd5b6102ac600480803573ffffffffffffffffffffffffffffffffffffffff16906020019091908035906020019091905050610460565b604051808215151515815260200191505060405180910390f35b60048054600181600116156101000203166002900480601f01602080910402602001604051908101604052809291908181526020018280546001816001161561010002031660029004801561035c5780601f106103315761010080835404028352916020019161035c565b820191906000526020600020905b81548152906001019060200180831161033f57829003601f168201915b505050505081565b6000600154905090565b60075481565b60065481565b60008060008373ffffffffffffffffffffffffffffffffffffffff1673ffffffffffffffffffffffffffffffffffffffff168152602001908152602001600020549050919050565b60058054600181600116156101000203166002900480601f0160208091040260200160405190810160405280929190818152602001828054600181600116156101000203166002900480156104585780601f1061042d57610100808354040283529160200191610458565b820191906000526020600020905b81548152906001019060200180831161043b57829003601f168201915b505050505081565b60008073ffffffffffffffffffffffffffffffffffffffff168373ffffffffffffffffffffffffffffffffffffffff161415151561049d57600080fd5b6000803373ffffffffffffffffffffffffffffffffffffffff1673ffffffffffffffffffffffffffffffffffffffff1681526020019081526020016000205482111515156104ea57600080fd5b61053b826000803373ffffffffffffffffffffffffffffffffffffffff1673ffffffffffffffffffffffffffffffffffffffff1681526020019081526020016000205461067f90919063ffffffff16565b6000803373ffffffffffffffffffffffffffffffffffffffff1673ffffffffffffffffffffffffffffffffffffffff168152602001908152602001600020819055506105ce826000808673ffffffffffffffffffffffffffffffffffffffff1673ffffffffffffffffffffffffffffffffffffffff1681526020019081526020016000205461069890919063ffffffff16565b6000808573ffffffffffffffffffffffffffffffffffffffff1673ffffffffffffffffffffffffffffffffffffffff168152602001908152602001600020819055508273ffffffffffffffffffffffffffffffffffffffff163373ffffffffffffffffffffffffffffffffffffffff167fddf252ad1be2c89b69c2b068fc378daa952ba7f163c4a11628f55a4df523b3ef846040518082815260200191505060405180910390a36001905092915050565b600082821115151561068d57fe5b818303905092915050565b60008082840190508381101515156106ac57fe5b80915050929150505600a165627a7a7230582089516d6431b3e3af52501d5e4ae25e5ec176bc0412c75ca4d6997f9d7b26edac0029",
  "source": "pragma solidity ^0.4.16;\nimport \"../node_modules/zeppelin-solidity/contracts/token/ERC20/BasicToken.sol\";\nimport \"./Agreement.sol\";\n\ncontract ThembaR is BasicToken {\n    address _owner;\n    address[] private agreements;\n    string public name = \"ExampleToken\"; \n    string public symbol = \"EGT\";\n    uint public decimals = 18;\n    uint public INITIAL_SUPPLY = 10000 * (10 ** decimals);\n   function ThembaR() public {\n        totalSupply_ = INITIAL_SUPPLY;\n        balances[msg.sender] = INITIAL_SUPPLY;\n    }\n         \n        // function addAgreement(address _arrangee, uint _direction, uint _left, uint __right, bool _canPort ) public {\n        //     require(_owner == msg.sender);\n        //     Agreement a = new Agreement( _arrangee, this, _direction,  _left, __right, _canPort);\n        //     agreements.push(a);\n        // }\n       \n        // function specialTransfer(address _to, uint amount, address _from, address agreement) public {\n        //     for (uint i = 0; i < agreements.length; i++) {\n        //         if (agreements[i] == agreement) {\n        //             transferFrom(_from, _to, amount);\n        //         }\n        //       }\n        // }\n    }",
  "sourcePath": "/home/rendani/Documents/thembaR/ThembaR/contracts/ThembaR.sol",
  "compiler": {
    "name": "solc",
    "version": "0.4.18+commit.9cf6e910.Emscripten.clang"
  },
  "schemaVersion": "1.0.1",
  "updatedAt": "2018-01-30T08:40:12.796Z"
}